{
  "_format": "hh-sol-artifact-1",
  "contractName": "Consent",
  "sourceName": "contracts/Consent.sol",
  "abi": [
    {
      "inputs": [],
      "stateMutability": "nonpayable",
      "type": "constructor"
    },
    {
      "inputs": [
        {
          "internalType": "address",
          "name": "user_address",
          "type": "address"
        },
        {
          "internalType": "uint256",
          "name": "data_id",
          "type": "uint256"
        }
      ],
      "name": "NotEnoughPermission",
      "type": "error"
    },
    {
      "inputs": [
        {
          "internalType": "uint256",
          "name": "request_id",
          "type": "uint256"
        }
      ],
      "name": "RequestNotFound",
      "type": "error"
    },
    {
      "inputs": [
        {
          "internalType": "uint256",
          "name": "requested_data_id",
          "type": "uint256"
        },
        {
          "internalType": "address",
          "name": "current_user",
          "type": "address"
        }
      ],
      "name": "ThisRequestWasNotMadeToCurrentUser",
      "type": "error"
    },
    {
      "inputs": [
        {
          "internalType": "uint256",
          "name": "user_data_id",
          "type": "uint256"
        }
      ],
      "name": "UserDataNotFound",
      "type": "error"
    },
    {
      "inputs": [
        {
          "internalType": "string",
          "name": "data_name",
          "type": "string"
        },
        {
          "internalType": "string",
          "name": "data_cid",
          "type": "string"
        }
      ],
      "name": "addUserData",
      "outputs": [],
      "stateMutability": "nonpayable",
      "type": "function"
    },
    {
      "inputs": [
        {
          "internalType": "uint256",
          "name": "data_id",
          "type": "uint256"
        },
        {
          "internalType": "address",
          "name": "recipient_address",
          "type": "address"
        }
      ],
      "name": "check_consent",
      "outputs": [
        {
          "internalType": "bool",
          "name": "",
          "type": "bool"
        }
      ],
      "stateMutability": "view",
      "type": "function"
    },
    {
      "inputs": [],
      "name": "getSenderUserDataIndexes",
      "outputs": [
        {
          "internalType": "uint256[]",
          "name": "user_data_indexes",
          "type": "uint256[]"
        }
      ],
      "stateMutability": "view",
      "type": "function"
    },
    {
      "inputs": [
        {
          "internalType": "uint256",
          "name": "data_id",
          "type": "uint256"
        },
        {
          "internalType": "address",
          "name": "recipient_address",
          "type": "address"
        }
      ],
      "name": "give_consent",
      "outputs": [],
      "stateMutability": "nonpayable",
      "type": "function"
    },
    {
      "inputs": [
        {
          "internalType": "uint256",
          "name": "user_data_id",
          "type": "uint256"
        },
        {
          "internalType": "uint256",
          "name": "status",
          "type": "uint256"
        }
      ],
      "name": "issuerVerification",
      "outputs": [],
      "stateMutability": "nonpayable",
      "type": "function"
    },
    {
      "inputs": [
        {
          "internalType": "uint256",
          "name": "requested_data_id",
          "type": "uint256"
        },
        {
          "internalType": "address",
          "name": "request_to",
          "type": "address"
        }
      ],
      "name": "makeRequest",
      "outputs": [],
      "stateMutability": "nonpayable",
      "type": "function"
    },
    {
      "inputs": [
        {
          "internalType": "uint256",
          "name": "request_id",
          "type": "uint256"
        }
      ],
      "name": "makeRequestComplete",
      "outputs": [],
      "stateMutability": "nonpayable",
      "type": "function"
    },
    {
      "inputs": [],
      "name": "owner",
      "outputs": [
        {
          "internalType": "address",
          "name": "",
          "type": "address"
        }
      ],
      "stateMutability": "view",
      "type": "function"
    },
    {
      "inputs": [
        {
          "internalType": "uint256",
          "name": "data_id",
          "type": "uint256"
        }
      ],
      "name": "readUserData",
      "outputs": [
        {
          "internalType": "uint256",
          "name": "user_data_id",
          "type": "uint256"
        },
        {
          "internalType": "string",
          "name": "user_data_name",
          "type": "string"
        },
        {
          "internalType": "string",
          "name": "user_data_cid",
          "type": "string"
        },
        {
          "internalType": "int256",
          "name": "data_verification_stage",
          "type": "int256"
        },
        {
          "internalType": "int256",
          "name": "issuer_verification_status",
          "type": "int256"
        }
      ],
      "stateMutability": "view",
      "type": "function"
    },
    {
      "inputs": [
        {
          "internalType": "uint256",
          "name": "data_id",
          "type": "uint256"
        }
      ],
      "name": "removeUserData",
      "outputs": [],
      "stateMutability": "nonpayable",
      "type": "function"
    },
    {
      "inputs": [
        {
          "internalType": "uint256",
          "name": "data_id",
          "type": "uint256"
        },
        {
          "internalType": "address",
          "name": "recipient_address",
          "type": "address"
        }
      ],
      "name": "revoke_consent",
      "outputs": [],
      "stateMutability": "nonpayable",
      "type": "function"
    },
    {
      "inputs": [
        {
          "internalType": "uint256",
          "name": "data_id",
          "type": "uint256"
        },
        {
          "internalType": "string",
          "name": "new_data_name",
          "type": "string"
        },
        {
          "internalType": "string",
          "name": "new_data_cid",
          "type": "string"
        }
      ],
      "name": "updateUserData",
      "outputs": [],
      "stateMutability": "nonpayable",
      "type": "function"
    }
  ],
  "bytecode": "0x60806040523480156200001157600080fd5b50336000806101000a81548173ffffffffffffffffffffffffffffffffffffffff021916908373ffffffffffffffffffffffffffffffffffffffff1602179055506001600360008060009054906101000a900473ffffffffffffffffffffffffffffffffffffffff1673ffffffffffffffffffffffffffffffffffffffff1673ffffffffffffffffffffffffffffffffffffffff16815260200190815260200160002060006101000a81548160ff02191690836001811115620000d957620000d8620000e4565b5b021790555062000113565b7f4e487b7100000000000000000000000000000000000000000000000000000000600052602160045260246000fd5b612fb380620001236000396000f3fe608060405234801561001057600080fd5b50600436106100b45760003560e01c80636d76cb3e116100715780636d76cb3e1461016357806372192a8f146101975780637fc3a0f6146101b35780638da5cb5b146101cf578063c5d954a5146101ed578063d83a175a14610209576100b4565b8063215d68dd146100b95780633477fb80146100d75780633a468086146100f357806343ba2bbc1461010f5780634d578d171461012b5780635021029814610147575b600080fd5b6100c1610239565b6040516100ce91906122e2565b60405180910390f35b6100f160048036038101906100ec91906123a2565b6102d4565b005b61010d600480360381019061010891906123a2565b6104c6565b005b610129600480360381019061012491906123e2565b610678565b005b610145600480360381019061014091906123a2565b6108aa565b005b610161600480360381019061015c9190612422565b610bd7565b005b61017d60048036038101906101789190612422565b610d6c565b60405161018e959493929190612507565b60405180910390f35b6101b160048036038101906101ac919061269d565b611298565b005b6101cd60048036038101906101c89190612422565b61147d565b005b6101d761195f565b6040516101e49190612737565b60405180910390f35b61020760048036038101906102029190612752565b611983565b005b610223600480360381019061021e91906123a2565b611c8b565b60405161023091906127e5565b60405180910390f35b60606000339050600260008273ffffffffffffffffffffffffffffffffffffffff1673ffffffffffffffffffffffffffffffffffffffff1681526020019081526020016000208054806020026020016040519081016040528092919081815260200182805480156102c957602002820191906000526020600020905b8154815260200190600101908083116102b5575b505050505091505090565b6000600480549050905060006102e984611d5b565b905060006040518060c0016040528084815260200183600001518152602001836040015181526020013373ffffffffffffffffffffffffffffffffffffffff1681526020018573ffffffffffffffffffffffffffffffffffffffff1681526020016000151581525090506004819080600181540180825580915050600190039060005260206000209060050201600090919091909150600082015181600001556020820151816001015560408201518160020190816103a89190612a0c565b5060608201518160030160006101000a81548173ffffffffffffffffffffffffffffffffffffffff021916908373ffffffffffffffffffffffffffffffffffffffff16021790555060808201518160040160006101000a81548173ffffffffffffffffffffffffffffffffffffffff021916908373ffffffffffffffffffffffffffffffffffffffff16021790555060a08201518160040160146101000a81548160ff0219169083151502179055505050600560008573ffffffffffffffffffffffffffffffffffffffff1673ffffffffffffffffffffffffffffffffffffffff1681526020019081526020016000208390806001815401808255809150506001900390600052602060002001600090919091909150555050505050565b816000339050600080600260008473ffffffffffffffffffffffffffffffffffffffff1673ffffffffffffffffffffffffffffffffffffffff16815260200190815260200160002080548060200260200160405190810160405280929190818152602001828054801561055857602002820191906000526020600020905b815481526020019060010190808311610544575b5050505050905060005b81518110156105a6578482828151811061057f5761057e612ade565b5b60200260200101510361059557600192506105a6565b8061059f90612b3c565b9050610562565b50816105e7576040517f08c379a00000000000000000000000000000000000000000000000000000000081526004016105de90612bf6565b60405180910390fd5b60006105f38787611c8b565b90508061066f5760066000888152602001908152602001600020869080600181540180825580915050600190039060005260206000200160009091909190916101000a81548173ffffffffffffffffffffffffffffffffffffffff021916908373ffffffffffffffffffffffffffffffffffffffff1602179055505b50505050505050565b60003390506001808111156106905761068f612c16565b5b600360008373ffffffffffffffffffffffffffffffffffffffff1673ffffffffffffffffffffffffffffffffffffffff16815260200190815260200160002060009054906101000a900460ff1660018111156106ef576106ee612c16565b5b1461072f576040517f08c379a000000000000000000000000000000000000000000000000000000000815260040161072690612cb7565b60405180910390fd5b600082101580156107405750600382105b61077f576040517f08c379a000000000000000000000000000000000000000000000000000000000815260040161077690612d23565b60405180910390fd5b600080600190506001840361079757600191506107a5565b600284036107a457600291505b5b60005b6001805490508110156108a25785600182815481106107ca576107c9612ade565b5b906000526020600020906005020160000154036108915782600182815481106107f6576107f5612ade565b5b906000526020600020906005020160040160016101000a81548160ff0219169083600281111561082957610828612c16565b5b0217905550600185148061083d5750600285145b1561089057816001828154811061085757610856612ade565b5b906000526020600020906005020160040160006101000a81548160ff0219169083600181111561088a57610889612c16565b5b02179055505b5b8061089b90612b3c565b90506107a8565b505050505050565b816000339050600080600260008473ffffffffffffffffffffffffffffffffffffffff1673ffffffffffffffffffffffffffffffffffffffff16815260200190815260200160002080548060200260200160405190810160405280929190818152602001828054801561093c57602002820191906000526020600020905b815481526020019060010190808311610928575b5050505050905060005b815181101561098a578482828151811061096357610962612ade565b5b602002602001015103610979576001925061098a565b8061098390612b3c565b9050610946565b50816109cb576040517f08c379a00000000000000000000000000000000000000000000000000000000081526004016109c290612bf6565b60405180910390fd5b60006109d78787611c8b565b90508015610bce576000600660008981526020019081526020016000208054905090506000805b82811015610b6b578873ffffffffffffffffffffffffffffffffffffffff16600660008c81526020019081526020016000208281548110610a4257610a41612ade565b5b9060005260206000200160009054906101000a900473ffffffffffffffffffffffffffffffffffffffff1673ffffffffffffffffffffffffffffffffffffffff1603610b5a5760019150600660008b8152602001908152602001600020600184610aac9190612d43565b81548110610abd57610abc612ade565b5b9060005260206000200160009054906101000a900473ffffffffffffffffffffffffffffffffffffffff16600660008c81526020019081526020016000208281548110610b0d57610b0c612ade565b5b9060005260206000200160006101000a81548173ffffffffffffffffffffffffffffffffffffffff021916908373ffffffffffffffffffffffffffffffffffffffff160217905550610b6b565b80610b6490612b3c565b90506109fe565b508015610bcb57600660008a8152602001908152602001600020805480610b9557610b94612d77565b5b6001900381819060005260206000200160006101000a81549073ffffffffffffffffffffffffffffffffffffffff021916905590555b50505b50505050505050565b600060048054905090506000805b82811015610d24578360048281548110610c0257610c01612ade565b5b90600052602060002090600502016000015403610d13573373ffffffffffffffffffffffffffffffffffffffff1660048281548110610c4457610c43612ade565b5b906000526020600020906005020160040160009054906101000a900473ffffffffffffffffffffffffffffffffffffffff1673ffffffffffffffffffffffffffffffffffffffff1614610cd05783336040517fa4fa61f4000000000000000000000000000000000000000000000000000000008152600401610cc7929190612da6565b60405180910390fd5b60019150600160048281548110610cea57610ce9612ade565b5b906000526020600020906005020160040160146101000a81548160ff0219169083151502179055505b80610d1d90612b3c565b9050610be5565b5080610d6757826040517f4ec726c7000000000000000000000000000000000000000000000000000000008152600401610d5e9190612dcf565b60405180910390fd5b505050565b6000606080600080600080600260003373ffffffffffffffffffffffffffffffffffffffff1673ffffffffffffffffffffffffffffffffffffffff168152602001908152602001600020805480602002602001604051908101604052809291908181526020018280548015610e0057602002820191906000526020600020905b815481526020019060010190808311610dec575b5050505050905060005b8151811015610e4e5788828281518110610e2757610e26612ade565b5b602002602001015103610e3d5760019250610e4e565b80610e4790612b3c565b9050610e0a565b506000600660008a8152602001908152602001600020805480602002602001604051908101604052809291908181526020018280548015610ee457602002820191906000526020600020905b8160009054906101000a900473ffffffffffffffffffffffffffffffffffffffff1673ffffffffffffffffffffffffffffffffffffffff1681526020019060010190808311610e9a575b5050505050905060005b8151811015610f93573373ffffffffffffffffffffffffffffffffffffffff16600660008c81526020019081526020016000208281548110610f3357610f32612ade565b5b9060005260206000200160009054906101000a900473ffffffffffffffffffffffffffffffffffffffff1673ffffffffffffffffffffffffffffffffffffffff1603610f825760019350610f93565b80610f8c90612b3c565b9050610eee565b5082610fd85733896040517f389190bc000000000000000000000000000000000000000000000000000000008152600401610fcf929190612dea565b60405180910390fd5b610fe061214d565b60005b600180549050811015611257578a6001828154811061100557611004612ade565b5b9060005260206000209060050201600001540361124657600181815481106110305761102f612ade565b5b90600052602060002090600502016040518060c0016040529081600082015481526020016001820160009054906101000a900473ffffffffffffffffffffffffffffffffffffffff1673ffffffffffffffffffffffffffffffffffffffff1673ffffffffffffffffffffffffffffffffffffffff1681526020016002820180546110b99061282f565b80601f01602080910402602001604051908101604052809291908181526020018280546110e59061282f565b80156111325780601f1061110757610100808354040283529160200191611132565b820191906000526020600020905b81548152906001019060200180831161111557829003601f168201915b5050505050815260200160038201805461114b9061282f565b80601f01602080910402602001604051908101604052809291908181526020018280546111779061282f565b80156111c45780601f10611199576101008083540402835291602001916111c4565b820191906000526020600020905b8154815290600101906020018083116111a757829003601f168201915b505050505081526020016004820160009054906101000a900460ff1660018111156111f2576111f1612c16565b5b600181111561120457611203612c16565b5b81526020016004820160019054906101000a900460ff16600281111561122d5761122c612c16565b5b600281111561123f5761123e612c16565b5b8152505091505b8061125090612b3c565b9050610fe3565b508060000151816040015182606001516112748460800151611fed565b6112818560a00151612082565b985098509850985098505050505091939590929450565b600033905060006001805490509050600080600260008573ffffffffffffffffffffffffffffffffffffffff1673ffffffffffffffffffffffffffffffffffffffff16815260200190815260200160002080548060200260200160405190810160405280929190818152602001828054801561133357602002820191906000526020600020905b81548152602001906001019080831161131f575b5050505050905060005b8151811015611381578782828151811061135a57611359612ade565b5b6020026020010151036113705760019250611381565b8061137a90612b3c565b905061133d565b50816113c457866040517f38b17baf0000000000000000000000000000000000000000000000000000000081526004016113bb9190612dcf565b60405180910390fd5b60005b838110156114735787600182815481106113e4576113e3612ade565b5b906000526020600020906005020160000154036114625786600182815481106114105761140f612ade565b5b9060005260206000209060050201600201908161142d9190612a0c565b50856001828154811061144357611442612ade565b5b906000526020600020906005020160030190816114609190612a0c565b505b8061146c90612b3c565b90506113c7565b5050505050505050565b6000600260003373ffffffffffffffffffffffffffffffffffffffff1673ffffffffffffffffffffffffffffffffffffffff1681526020019081526020016000208054905090506000805b8281101561160f5783600260003373ffffffffffffffffffffffffffffffffffffffff1673ffffffffffffffffffffffffffffffffffffffff168152602001908152602001600020828154811061152257611521612ade565b5b9060005260206000200154036115fe5760019150600260003373ffffffffffffffffffffffffffffffffffffffff1673ffffffffffffffffffffffffffffffffffffffff1681526020019081526020016000206001846115829190612d43565b8154811061159357611592612ade565b5b9060005260206000200154600260003373ffffffffffffffffffffffffffffffffffffffff1673ffffffffffffffffffffffffffffffffffffffff16815260200190815260200160002082815481106115ef576115ee612ade565b5b90600052602060002001819055505b8061160890612b3c565b90506114c8565b508061165257826040517f38b17baf0000000000000000000000000000000000000000000000000000000081526004016116499190612dcf565b60405180910390fd5b600260003373ffffffffffffffffffffffffffffffffffffffff1673ffffffffffffffffffffffffffffffffffffffff1681526020019081526020016000208054806116a1576116a0612d77565b5b6001900381819060005260206000200160009055905560018054905091506000805b838110156118745784600182815481106116e0576116df612ade565b5b906000526020600020906005020160000154036118635760019150600180856117099190612d43565b8154811061171a57611719612ade565b5b90600052602060002090600502016001828154811061173c5761173b612ade565b5b9060005260206000209060050201600082015481600001556001820160009054906101000a900473ffffffffffffffffffffffffffffffffffffffff168160010160006101000a81548173ffffffffffffffffffffffffffffffffffffffff021916908373ffffffffffffffffffffffffffffffffffffffff160217905550600282018160020190816117cf9190612e29565b50600382018160030190816117e49190612e29565b506004820160009054906101000a900460ff168160040160006101000a81548160ff0219169083600181111561181d5761181c612c16565b5b02179055506004820160019054906101000a900460ff168160040160016101000a81548160ff0219169083600281111561185a57611859612c16565b5b02179055509050505b8061186d90612b3c565b90506116c3565b50806118b757836040517f38b17baf0000000000000000000000000000000000000000000000000000000081526004016118ae9190612dcf565b60405180910390fd5b60018054806118c9576118c8612d77565b5b60019003818190600052602060002090600502016000808201600090556001820160006101000a81549073ffffffffffffffffffffffffffffffffffffffff021916905560028201600061191d91906121bd565b60038201600061192d91906121bd565b6004820160006101000a81549060ff02191690556004820160016101000a81549060ff02191690555050905550505050565b60008054906101000a900473ffffffffffffffffffffffffffffffffffffffff1681565b60018081111561199657611995612c16565b5b600360003373ffffffffffffffffffffffffffffffffffffffff1673ffffffffffffffffffffffffffffffffffffffff16815260200190815260200160002060009054906101000a900460ff1660018111156119f5576119f4612c16565b5b03611a35576040517f08c379a0000000000000000000000000000000000000000000000000000000008152600401611a2c90612f5d565b60405180910390fd5b6000600360003373ffffffffffffffffffffffffffffffffffffffff1673ffffffffffffffffffffffffffffffffffffffff16815260200190815260200160002060006101000a81548160ff02191690836001811115611a9857611a97612c16565b5b02179055506000600180549050905060006040518060c001604052808381526020013373ffffffffffffffffffffffffffffffffffffffff16815260200185815260200184815260200160006001811115611af657611af5612c16565b5b815260200160006002811115611b0f57611b0e612c16565b5b815250905060018190806001815401808255809150506001900390600052602060002090600502016000909190919091506000820151816000015560208201518160010160006101000a81548173ffffffffffffffffffffffffffffffffffffffff021916908373ffffffffffffffffffffffffffffffffffffffff1602179055506040820151816002019081611ba69190612a0c565b506060820151816003019081611bbc9190612a0c565b5060808201518160040160006101000a81548160ff02191690836001811115611be857611be7612c16565b5b021790555060a08201518160040160016101000a81548160ff02191690836002811115611c1857611c17612c16565b5b02179055505050600260003373ffffffffffffffffffffffffffffffffffffffff1673ffffffffffffffffffffffffffffffffffffffff16815260200190815260200160002082908060018154018082558091505060019003906000526020600020016000909190919091505550505050565b600080600660008581526020019081526020016000208054905090506000805b82811015611d4f578473ffffffffffffffffffffffffffffffffffffffff16600660008881526020019081526020016000208281548110611cef57611cee612ade565b5b9060005260206000200160009054906101000a900473ffffffffffffffffffffffffffffffffffffffff1673ffffffffffffffffffffffffffffffffffffffff1603611d3e5760019150611d4f565b80611d4890612b3c565b9050611cab565b50809250505092915050565b611d6361214d565b6000600180549050905060005b81811015611fe5578360018281548110611d8d57611d8c612ade565b5b90600052602060002090600502016000015403611fd45760018181548110611db857611db7612ade565b5b90600052602060002090600502016040518060c0016040529081600082015481526020016001820160009054906101000a900473ffffffffffffffffffffffffffffffffffffffff1673ffffffffffffffffffffffffffffffffffffffff1673ffffffffffffffffffffffffffffffffffffffff168152602001600282018054611e419061282f565b80601f0160208091040260200160405190810160405280929190818152602001828054611e6d9061282f565b8015611eba5780601f10611e8f57610100808354040283529160200191611eba565b820191906000526020600020905b815481529060010190602001808311611e9d57829003601f168201915b50505050508152602001600382018054611ed39061282f565b80601f0160208091040260200160405190810160405280929190818152602001828054611eff9061282f565b8015611f4c5780601f10611f2157610100808354040283529160200191611f4c565b820191906000526020600020905b815481529060010190602001808311611f2f57829003601f168201915b505050505081526020016004820160009054906101000a900460ff166001811115611f7a57611f79612c16565b5b6001811115611f8c57611f8b612c16565b5b81526020016004820160019054906101000a900460ff166002811115611fb557611fb4612c16565b5b6002811115611fc757611fc6612c16565b5b8152505092505050611fe8565b80611fde90612b3c565b9050611d70565b50505b919050565b6000807fffffffffffffffffffffffffffffffffffffffffffffffffffffffffffffffff90506000600181111561202757612026612c16565b5b83600181111561203a57612039612c16565b5b036120485760009050612079565b60018081111561205b5761205a612c16565b5b83600181111561206e5761206d612c16565b5b0361207857600190505b5b80915050919050565b6000807fffffffffffffffffffffffffffffffffffffffffffffffffffffffffffffffff9050600060028111156120bc576120bb612c16565b5b8360028111156120cf576120ce612c16565b5b036120dd5760009050612144565b600160028111156120f1576120f0612c16565b5b83600281111561210457612103612c16565b5b036121125760019050612143565b60028081111561212557612124612c16565b5b83600281111561213857612137612c16565b5b0361214257600290505b5b5b80915050919050565b6040518060c0016040528060008152602001600073ffffffffffffffffffffffffffffffffffffffff16815260200160608152602001606081526020016000600181111561219e5761219d612c16565b5b8152602001600060028111156121b7576121b6612c16565b5b81525090565b5080546121c99061282f565b6000825580601f106121db57506121fa565b601f0160209004906000526020600020908101906121f991906121fd565b5b50565b5b808211156122165760008160009055506001016121fe565b5090565b600081519050919050565b600082825260208201905092915050565b6000819050602082019050919050565b6000819050919050565b61225981612246565b82525050565b600061226b8383612250565b60208301905092915050565b6000602082019050919050565b600061228f8261221a565b6122998185612225565b93506122a483612236565b8060005b838110156122d55781516122bc888261225f565b97506122c783612277565b9250506001810190506122a8565b5085935050505092915050565b600060208201905081810360008301526122fc8184612284565b905092915050565b6000604051905090565b600080fd5b600080fd5b61232181612246565b811461232c57600080fd5b50565b60008135905061233e81612318565b92915050565b600073ffffffffffffffffffffffffffffffffffffffff82169050919050565b600061236f82612344565b9050919050565b61237f81612364565b811461238a57600080fd5b50565b60008135905061239c81612376565b92915050565b600080604083850312156123b9576123b861230e565b5b60006123c78582860161232f565b92505060206123d88582860161238d565b9150509250929050565b600080604083850312156123f9576123f861230e565b5b60006124078582860161232f565b92505060206124188582860161232f565b9150509250929050565b6000602082840312156124385761243761230e565b5b60006124468482850161232f565b91505092915050565b61245881612246565b82525050565b600081519050919050565b600082825260208201905092915050565b60005b8381101561249857808201518184015260208101905061247d565b60008484015250505050565b6000601f19601f8301169050919050565b60006124c08261245e565b6124ca8185612469565b93506124da81856020860161247a565b6124e3816124a4565b840191505092915050565b6000819050919050565b612501816124ee565b82525050565b600060a08201905061251c600083018861244f565b818103602083015261252e81876124b5565b9050818103604083015261254281866124b5565b905061255160608301856124f8565b61255e60808301846124f8565b9695505050505050565b600080fd5b600080fd5b7f4e487b7100000000000000000000000000000000000000000000000000000000600052604160045260246000fd5b6125aa826124a4565b810181811067ffffffffffffffff821117156125c9576125c8612572565b5b80604052505050565b60006125dc612304565b90506125e882826125a1565b919050565b600067ffffffffffffffff82111561260857612607612572565b5b612611826124a4565b9050602081019050919050565b82818337600083830152505050565b600061264061263b846125ed565b6125d2565b90508281526020810184848401111561265c5761265b61256d565b5b61266784828561261e565b509392505050565b600082601f83011261268457612683612568565b5b813561269484826020860161262d565b91505092915050565b6000806000606084860312156126b6576126b561230e565b5b60006126c48682870161232f565b935050602084013567ffffffffffffffff8111156126e5576126e4612313565b5b6126f18682870161266f565b925050604084013567ffffffffffffffff81111561271257612711612313565b5b61271e8682870161266f565b9150509250925092565b61273181612364565b82525050565b600060208201905061274c6000830184612728565b92915050565b600080604083850312156127695761276861230e565b5b600083013567ffffffffffffffff81111561278757612786612313565b5b6127938582860161266f565b925050602083013567ffffffffffffffff8111156127b4576127b3612313565b5b6127c08582860161266f565b9150509250929050565b60008115159050919050565b6127df816127ca565b82525050565b60006020820190506127fa60008301846127d6565b92915050565b7f4e487b7100000000000000000000000000000000000000000000000000000000600052602260045260246000fd5b6000600282049050600182168061284757607f821691505b60208210810361285a57612859612800565b5b50919050565b60008190508160005260206000209050919050565b60006020601f8301049050919050565b600082821b905092915050565b6000600883026128c27fffffffffffffffffffffffffffffffffffffffffffffffffffffffffffffffff82612885565b6128cc8683612885565b95508019841693508086168417925050509392505050565b6000819050919050565b60006129096129046128ff84612246565b6128e4565b612246565b9050919050565b6000819050919050565b612923836128ee565b61293761292f82612910565b848454612892565b825550505050565b600090565b61294c61293f565b61295781848461291a565b505050565b5b8181101561297b57612970600082612944565b60018101905061295d565b5050565b601f8211156129c05761299181612860565b61299a84612875565b810160208510156129a9578190505b6129bd6129b585612875565b83018261295c565b50505b505050565b600082821c905092915050565b60006129e3600019846008026129c5565b1980831691505092915050565b60006129fc83836129d2565b9150826002028217905092915050565b612a158261245e565b67ffffffffffffffff811115612a2e57612a2d612572565b5b612a38825461282f565b612a4382828561297f565b600060209050601f831160018114612a765760008415612a64578287015190505b612a6e85826129f0565b865550612ad6565b601f198416612a8486612860565b60005b82811015612aac57848901518255600182019150602085019450602081019050612a87565b86831015612ac95784890151612ac5601f8916826129d2565b8355505b6001600288020188555050505b505050505050565b7f4e487b7100000000000000000000000000000000000000000000000000000000600052603260045260246000fd5b7f4e487b7100000000000000000000000000000000000000000000000000000000600052601160045260246000fd5b6000612b4782612246565b91507fffffffffffffffffffffffffffffffffffffffffffffffffffffffffffffffff8203612b7957612b78612b0d565b5b600182019050919050565b7f5573657220646f65736e2774206861766520656e6f756768207065726d69737360008201527f696f6e0000000000000000000000000000000000000000000000000000000000602082015250565b6000612be0602383612469565b9150612beb82612b84565b604082019050919050565b60006020820190508181036000830152612c0f81612bd3565b9050919050565b7f4e487b7100000000000000000000000000000000000000000000000000000000600052602160045260246000fd5b7f4f6e6c7920497373756572202855736572292063616e2072756e20746869732060008201527f7574696c69747900000000000000000000000000000000000000000000000000602082015250565b6000612ca1602783612469565b9150612cac82612c45565b604082019050919050565b60006020820190508181036000830152612cd081612c94565b9050919050565b7f496e76616c69642053544154555320636f646500000000000000000000000000600082015250565b6000612d0d601383612469565b9150612d1882612cd7565b602082019050919050565b60006020820190508181036000830152612d3c81612d00565b9050919050565b6000612d4e82612246565b9150612d5983612246565b9250828203905081811115612d7157612d70612b0d565b5b92915050565b7f4e487b7100000000000000000000000000000000000000000000000000000000600052603160045260246000fd5b6000604082019050612dbb600083018561244f565b612dc86020830184612728565b9392505050565b6000602082019050612de4600083018461244f565b92915050565b6000604082019050612dff6000830185612728565b612e0c602083018461244f565b9392505050565b600081549050612e228161282f565b9050919050565b818103612e37575050612f0f565b612e4082612e13565b67ffffffffffffffff811115612e5957612e58612572565b5b612e63825461282f565b612e6e82828561297f565b6000601f831160018114612e9d5760008415612e8b578287015490505b612e9585826129f0565b865550612f08565b601f198416612eab87612860565b9650612eb686612860565b60005b82811015612ede57848901548255600182019150600185019450602081019050612eb9565b86831015612efb5784890154612ef7601f8916826129d2565b8355505b6001600288020188555050505b5050505050505b565b7f4973737565722043616e6e6f7420646174612061732055736572000000000000600082015250565b6000612f47601a83612469565b9150612f5282612f11565b602082019050919050565b60006020820190508181036000830152612f7681612f3a565b905091905056fea2646970667358221220dabfcefcbb00a629605f023e2049b1e814a2a8066ef6a9c62ca511644236d1f964736f6c63430008110033",
  "linkReferences": {},
  "deployedLinkReferences": {}
}