{
  "_format": "hh-sol-artifact-1",
  "contractName": "Consent",
  "sourceName": "contracts/Consent.sol",
  "abi": [
    {
      "inputs": [],
      "stateMutability": "nonpayable",
      "type": "constructor"
    },
    {
      "inputs": [
        {
          "internalType": "uint256",
          "name": "request_id",
          "type": "uint256"
        }
      ],
      "name": "InvalidRequestID",
      "type": "error"
    },
    {
      "inputs": [
        {
          "internalType": "address",
          "name": "user_address",
          "type": "address"
        },
        {
          "internalType": "uint256",
          "name": "data_id",
          "type": "uint256"
        }
      ],
      "name": "NotEnoughPermission",
      "type": "error"
    },
    {
      "inputs": [
        {
          "internalType": "uint256",
          "name": "data_id",
          "type": "uint256"
        },
        {
          "internalType": "address",
          "name": "user_address",
          "type": "address"
        }
      ],
      "name": "PermissionNotFound",
      "type": "error"
    },
    {
      "inputs": [
        {
          "internalType": "uint256",
          "name": "request_id",
          "type": "uint256"
        }
      ],
      "name": "RequestNotFound",
      "type": "error"
    },
    {
      "inputs": [
        {
          "internalType": "uint256",
          "name": "requested_data_id",
          "type": "uint256"
        },
        {
          "internalType": "address",
          "name": "current_user",
          "type": "address"
        }
      ],
      "name": "ThisRequestWasNotMadeToCurrentUser",
      "type": "error"
    },
    {
      "inputs": [
        {
          "internalType": "uint256",
          "name": "user_data_id",
          "type": "uint256"
        }
      ],
      "name": "UserDataNotFound",
      "type": "error"
    },
    {
      "inputs": [
        {
          "internalType": "string",
          "name": "data_name",
          "type": "string"
        },
        {
          "internalType": "string",
          "name": "data_cid",
          "type": "string"
        }
      ],
      "name": "addUserData",
      "outputs": [],
      "stateMutability": "nonpayable",
      "type": "function"
    },
    {
      "inputs": [
        {
          "internalType": "uint256",
          "name": "data_id",
          "type": "uint256"
        },
        {
          "internalType": "address",
          "name": "recipient_address",
          "type": "address"
        }
      ],
      "name": "check_consent",
      "outputs": [
        {
          "internalType": "bool",
          "name": "",
          "type": "bool"
        }
      ],
      "stateMutability": "view",
      "type": "function"
    },
    {
      "inputs": [
        {
          "internalType": "uint256",
          "name": "request_id",
          "type": "uint256"
        },
        {
          "internalType": "uint256",
          "name": "status",
          "type": "uint256"
        }
      ],
      "name": "fulfillRequest",
      "outputs": [],
      "stateMutability": "nonpayable",
      "type": "function"
    },
    {
      "inputs": [
        {
          "internalType": "uint256",
          "name": "request_id",
          "type": "uint256"
        }
      ],
      "name": "getRequestById",
      "outputs": [
        {
          "components": [
            {
              "internalType": "uint256",
              "name": "request_id",
              "type": "uint256"
            },
            {
              "internalType": "uint256",
              "name": "requested_data_id",
              "type": "uint256"
            },
            {
              "internalType": "string",
              "name": "requested_data_name",
              "type": "string"
            },
            {
              "internalType": "address",
              "name": "request_from",
              "type": "address"
            },
            {
              "internalType": "address",
              "name": "request_to",
              "type": "address"
            },
            {
              "internalType": "bool",
              "name": "isCompleted",
              "type": "bool"
            },
            {
              "internalType": "enum Consent.RequestStatus",
              "name": "request_status",
              "type": "uint8"
            }
          ],
          "internalType": "struct Consent.UserDataRequest",
          "name": "request",
          "type": "tuple"
        }
      ],
      "stateMutability": "view",
      "type": "function"
    },
    {
      "inputs": [],
      "name": "getRequestIndexesForCurrentUser",
      "outputs": [
        {
          "internalType": "uint256[]",
          "name": "",
          "type": "uint256[]"
        }
      ],
      "stateMutability": "view",
      "type": "function"
    },
    {
      "inputs": [],
      "name": "getSenderUserDataIndexes",
      "outputs": [
        {
          "internalType": "uint256[]",
          "name": "user_data_indexes",
          "type": "uint256[]"
        }
      ],
      "stateMutability": "view",
      "type": "function"
    },
    {
      "inputs": [],
      "name": "getUserRequest",
      "outputs": [
        {
          "internalType": "uint256[]",
          "name": "current_user_requests",
          "type": "uint256[]"
        }
      ],
      "stateMutability": "view",
      "type": "function"
    },
    {
      "inputs": [
        {
          "internalType": "uint256",
          "name": "data_id",
          "type": "uint256"
        },
        {
          "internalType": "address",
          "name": "recipient_address",
          "type": "address"
        }
      ],
      "name": "give_consent",
      "outputs": [],
      "stateMutability": "nonpayable",
      "type": "function"
    },
    {
      "inputs": [
        {
          "internalType": "uint256",
          "name": "request_id",
          "type": "uint256"
        }
      ],
      "name": "isRequestMadeByIssuer",
      "outputs": [
        {
          "internalType": "bool",
          "name": "is_issuer",
          "type": "bool"
        }
      ],
      "stateMutability": "view",
      "type": "function"
    },
    {
      "inputs": [
        {
          "internalType": "address",
          "name": "user_address",
          "type": "address"
        }
      ],
      "name": "isUserIssuer",
      "outputs": [
        {
          "internalType": "bool",
          "name": "is_issuer",
          "type": "bool"
        }
      ],
      "stateMutability": "view",
      "type": "function"
    },
    {
      "inputs": [
        {
          "internalType": "uint256",
          "name": "user_data_id",
          "type": "uint256"
        },
        {
          "internalType": "uint256",
          "name": "status",
          "type": "uint256"
        }
      ],
      "name": "issuerVerification",
      "outputs": [],
      "stateMutability": "nonpayable",
      "type": "function"
    },
    {
      "inputs": [
        {
          "internalType": "address",
          "name": "issuer_address",
          "type": "address"
        }
      ],
      "name": "makeIssuer",
      "outputs": [],
      "stateMutability": "nonpayable",
      "type": "function"
    },
    {
      "inputs": [
        {
          "internalType": "uint256",
          "name": "requested_data_id",
          "type": "uint256"
        }
      ],
      "name": "makeRequest",
      "outputs": [],
      "stateMutability": "nonpayable",
      "type": "function"
    },
    {
      "inputs": [],
      "name": "owner",
      "outputs": [
        {
          "internalType": "address",
          "name": "",
          "type": "address"
        }
      ],
      "stateMutability": "view",
      "type": "function"
    },
    {
      "inputs": [
        {
          "internalType": "uint256",
          "name": "data_id",
          "type": "uint256"
        }
      ],
      "name": "readUserData",
      "outputs": [
        {
          "internalType": "uint256",
          "name": "user_data_id",
          "type": "uint256"
        },
        {
          "internalType": "string",
          "name": "user_data_name",
          "type": "string"
        },
        {
          "internalType": "string",
          "name": "user_data_cid",
          "type": "string"
        },
        {
          "internalType": "int256",
          "name": "data_verification_stage",
          "type": "int256"
        },
        {
          "internalType": "int256",
          "name": "issuer_verification_status",
          "type": "int256"
        }
      ],
      "stateMutability": "view",
      "type": "function"
    },
    {
      "inputs": [
        {
          "internalType": "uint256",
          "name": "data_id",
          "type": "uint256"
        }
      ],
      "name": "removeUserData",
      "outputs": [],
      "stateMutability": "nonpayable",
      "type": "function"
    },
    {
      "inputs": [
        {
          "internalType": "uint256",
          "name": "data_id",
          "type": "uint256"
        },
        {
          "internalType": "address",
          "name": "recipient_address",
          "type": "address"
        }
      ],
      "name": "revoke_consent",
      "outputs": [],
      "stateMutability": "nonpayable",
      "type": "function"
    },
    {
      "inputs": [
        {
          "internalType": "uint256",
          "name": "data_id",
          "type": "uint256"
        },
        {
          "internalType": "string",
          "name": "new_data_name",
          "type": "string"
        },
        {
          "internalType": "string",
          "name": "new_data_cid",
          "type": "string"
        }
      ],
      "name": "updateUserData",
      "outputs": [],
      "stateMutability": "nonpayable",
      "type": "function"
    }
  ],
  "bytecode": "0x60806040523480156200001157600080fd5b50336000806101000a81548173ffffffffffffffffffffffffffffffffffffffff021916908373ffffffffffffffffffffffffffffffffffffffff1602179055506001600360008060009054906101000a900473ffffffffffffffffffffffffffffffffffffffff1673ffffffffffffffffffffffffffffffffffffffff1673ffffffffffffffffffffffffffffffffffffffff16815260200190815260200160002060006101000a81548160ff02191690836002811115620000d957620000d8620000e4565b5b021790555062000113565b7f4e487b7100000000000000000000000000000000000000000000000000000000600052602160045260246000fd5b61415880620001236000396000f3fe608060405234801561001057600080fd5b50600436106101165760003560e01c80634c79ac17116100a25780637fc3a0f6116100715780637fc3a0f6146102e15780638da5cb5b146102fd578063c5d954a51461031b578063d83a175a14610337578063ff836f381461036757610116565b80634c79ac17146102575780634d578d17146102755780636d76cb3e1461029157806372192a8f146102c557610116565b80633a468086116100e95780633a468086146101a35780633b40075d146101bf5780633f7e53cd146101db57806343ba2bbc1461020b578063474718e61461022757610116565b8063118ecbd81461011b578063215d68dd1461013757806326757b73146101555780632bb55d7314610185575b600080fd5b610135600480360381019061013091906130e0565b610383565b005b61013f61052f565b60405161014c91906131d5565b60405180910390f35b61016f600480360381019061016a9190613223565b6105ca565b60405161017c919061341d565b60405180910390f35b61018d61093b565b60405161019a91906131d5565b60405180910390f35b6101bd60048036038101906101b8919061343f565b6109d6565b005b6101d960048036038101906101d49190613223565b610b88565b005b6101f560048036038101906101f09190613223565b610e30565b604051610202919061348e565b60405180910390f35b610225600480360381019061022091906134a9565b610eef565b005b610241600480360381019061023c91906130e0565b611349565b60405161024e919061348e565b60405180910390f35b61025f6113c6565b60405161026c91906131d5565b60405180910390f35b61028f600480360381019061028a919061343f565b611461565b005b6102ab60048036038101906102a69190613223565b61178e565b6040516102bc95949392919061355b565b60405180910390f35b6102df60048036038101906102da91906136f1565b611c85565b005b6102fb60048036038101906102f69190613223565b611e6a565b005b61030561234c565b604051610312919061378b565b60405180910390f35b610335600480360381019061033091906137a6565b612370565b005b610351600480360381019061034c919061343f565b612679565b60405161035e919061348e565b60405180910390f35b610381600480360381019061037c91906134a9565b612749565b005b60008054906101000a900473ffffffffffffffffffffffffffffffffffffffff1673ffffffffffffffffffffffffffffffffffffffff163373ffffffffffffffffffffffffffffffffffffffff1614610411576040517f08c379a00000000000000000000000000000000000000000000000000000000081526004016104089061386a565b60405180910390fd5b600060028111156104255761042461330a565b5b600360008373ffffffffffffffffffffffffffffffffffffffff1673ffffffffffffffffffffffffffffffffffffffff16815260200190815260200160002060009054906101000a900460ff1660028111156104845761048361330a565b5b036104c4576040517f08c379a00000000000000000000000000000000000000000000000000000000081526004016104bb90613922565b60405180910390fd5b6001600360008373ffffffffffffffffffffffffffffffffffffffff1673ffffffffffffffffffffffffffffffffffffffff16815260200190815260200160002060006101000a81548160ff021916908360028111156105275761052661330a565b5b021790555050565b60606000339050600260008273ffffffffffffffffffffffffffffffffffffffff1673ffffffffffffffffffffffffffffffffffffffff1681526020019081526020016000208054806020026020016040519081016040528092919081815260200182805480156105bf57602002820191906000526020600020905b8154815260200190600101908083116105ab575b505050505091505090565b6105d2612f24565b6000600480549050905060005b818110156109335783600482815481106105fc576105fb613942565b5b90600052602060002090600502016000015403610922576004818154811061062757610626613942565b5b906000526020600020906005020160030160009054906101000a900473ffffffffffffffffffffffffffffffffffffffff1673ffffffffffffffffffffffffffffffffffffffff163373ffffffffffffffffffffffffffffffffffffffff1614806107025750600481815481106106a1576106a0613942565b5b906000526020600020906005020160040160009054906101000a900473ffffffffffffffffffffffffffffffffffffffff1673ffffffffffffffffffffffffffffffffffffffff163373ffffffffffffffffffffffffffffffffffffffff16145b156108e5576004818154811061071b5761071a613942565b5b90600052602060002090600502016040518060e00160405290816000820154815260200160018201548152602001600282018054610758906139a0565b80601f0160208091040260200160405190810160405280929190818152602001828054610784906139a0565b80156107d15780601f106107a6576101008083540402835291602001916107d1565b820191906000526020600020905b8154815290600101906020018083116107b457829003601f168201915b505050505081526020016003820160009054906101000a900473ffffffffffffffffffffffffffffffffffffffff1673ffffffffffffffffffffffffffffffffffffffff1673ffffffffffffffffffffffffffffffffffffffff1681526020016004820160009054906101000a900473ffffffffffffffffffffffffffffffffffffffff1673ffffffffffffffffffffffffffffffffffffffff1673ffffffffffffffffffffffffffffffffffffffff1681526020016004820160149054906101000a900460ff161515151581526020016004820160159054906101000a900460ff1660028111156108c6576108c561330a565b5b60028111156108d8576108d761330a565b5b8152505092505050610936565b836040517fdaeced5000000000000000000000000000000000000000000000000000000000815260040161091991906139d1565b60405180910390fd5b8061092c90613a1b565b90506105df565b50505b919050565b60606000600660003373ffffffffffffffffffffffffffffffffffffffff1673ffffffffffffffffffffffffffffffffffffffff1681526020019081526020016000208054806020026020016040519081016040528092919081815260200182805480156109c857602002820191906000526020600020905b8154815260200190600101908083116109b4575b505050505090508091505090565b816000339050600080600260008473ffffffffffffffffffffffffffffffffffffffff1673ffffffffffffffffffffffffffffffffffffffff168152602001908152602001600020805480602002602001604051908101604052809291908181526020018280548015610a6857602002820191906000526020600020905b815481526020019060010190808311610a54575b5050505050905060005b8151811015610ab65784828281518110610a8f57610a8e613942565b5b602002602001015103610aa55760019250610ab6565b80610aaf90613a1b565b9050610a72565b5081610af7576040517f08c379a0000000000000000000000000000000000000000000000000000000008152600401610aee90613ad5565b60405180910390fd5b6000610b038787612679565b905080610b7f5760076000888152602001908152602001600020869080600181540180825580915050600190039060005260206000200160009091909190916101000a81548173ffffffffffffffffffffffffffffffffffffffff021916908373ffffffffffffffffffffffffffffffffffffffff1602179055505b50505050505050565b600060048054905090506000610b9d83612b32565b905060006040518060e0016040528084815260200183600001518152602001836040015181526020013373ffffffffffffffffffffffffffffffffffffffff168152602001836020015173ffffffffffffffffffffffffffffffffffffffff16815260200160001515815260200160006002811115610c1f57610c1e61330a565b5b8152509050600481908060018154018082558091505060019003906000526020600020906005020160009091909190915060008201518160000155602082015181600101556040820151816002019081610c799190613ca1565b5060608201518160030160006101000a81548173ffffffffffffffffffffffffffffffffffffffff021916908373ffffffffffffffffffffffffffffffffffffffff16021790555060808201518160040160006101000a81548173ffffffffffffffffffffffffffffffffffffffff021916908373ffffffffffffffffffffffffffffffffffffffff16021790555060a08201518160040160146101000a81548160ff02191690831515021790555060c08201518160040160156101000a81548160ff02191690836002811115610d5357610d5261330a565b5b0217905550505060056000836020015173ffffffffffffffffffffffffffffffffffffffff1673ffffffffffffffffffffffffffffffffffffffff168152602001908152602001600020839080600181540180825580915050600190039060005260206000200160009091909190915055600660003373ffffffffffffffffffffffffffffffffffffffff1673ffffffffffffffffffffffffffffffffffffffff16815260200190815260200160002083908060018154018082558091505060019003906000526020600020016000909190919091505550505050565b60008060048054905090506000806000905060005b83811015610edb578560048281548110610e6257610e61613942565b5b90600052602060002090600502016000015403610eca576001915060048181548110610e9157610e90613942565b5b906000526020600020906005020160030160009054906101000a900473ffffffffffffffffffffffffffffffffffffffff169250610edb565b80610ed490613a1b565b9050610e45565b50610ee582611349565b9350505050919050565b600033905060016002811115610f0857610f0761330a565b5b600360008373ffffffffffffffffffffffffffffffffffffffff1673ffffffffffffffffffffffffffffffffffffffff16815260200190815260200160002060009054906101000a900460ff166002811115610f6757610f6661330a565b5b14610fa7576040517f08c379a0000000000000000000000000000000000000000000000000000000008152600401610f9e90613de5565b60405180910390fd5b60008210158015610fb85750600382105b610ff7576040517f08c379a0000000000000000000000000000000000000000000000000000000008152600401610fee90613e51565b60405180910390fd5b600080600190506001840361100f576001915061101d565b6002840361101c57600291505b5b60005b60018054905081101561111a57856001828154811061104257611041613942565b5b9060005260206000209060050201600001540361110957826001828154811061106e5761106d613942565b5b906000526020600020906005020160040160016101000a81548160ff021916908360028111156110a1576110a061330a565b5b021790555060018514806110b55750600285145b156111085781600182815481106110cf576110ce613942565b5b906000526020600020906005020160040160006101000a81548160ff021916908360018111156111025761110161330a565b5b02179055505b5b8061111390613a1b565b9050611020565b506000806007600088815260200190815260200160002080549050905060005b818110156112a3573373ffffffffffffffffffffffffffffffffffffffff16600760008a8152602001908152602001600020828154811061117e5761117d613942565b5b9060005260206000200160009054906101000a900473ffffffffffffffffffffffffffffffffffffffff1673ffffffffffffffffffffffffffffffffffffffff16036112925760019250600760008981526020019081526020016000206001836111e89190613e71565b815481106111f9576111f8613942565b5b9060005260206000200160009054906101000a900473ffffffffffffffffffffffffffffffffffffffff16600760008a8152602001908152602001600020828154811061124957611248613942565b5b9060005260206000200160006101000a81548173ffffffffffffffffffffffffffffffffffffffff021916908373ffffffffffffffffffffffffffffffffffffffff1602179055505b8061129c90613a1b565b905061113a565b50816112e85786336040517f98f1fa740000000000000000000000000000000000000000000000000000000081526004016112df929190613ea5565b60405180910390fd5b6007600088815260200190815260200160002080548061130b5761130a613ece565b5b6001900381819060005260206000200160006101000a81549073ffffffffffffffffffffffffffffffffffffffff0219169055905550505050505050565b60006001600281111561135f5761135e61330a565b5b600360008473ffffffffffffffffffffffffffffffffffffffff1673ffffffffffffffffffffffffffffffffffffffff16815260200190815260200160002060009054906101000a900460ff1660028111156113be576113bd61330a565b5b149050919050565b60606000600560003373ffffffffffffffffffffffffffffffffffffffff1673ffffffffffffffffffffffffffffffffffffffff16815260200190815260200160002080548060200260200160405190810160405280929190818152602001828054801561145357602002820191906000526020600020905b81548152602001906001019080831161143f575b505050505090508091505090565b816000339050600080600260008473ffffffffffffffffffffffffffffffffffffffff1673ffffffffffffffffffffffffffffffffffffffff1681526020019081526020016000208054806020026020016040519081016040528092919081815260200182805480156114f357602002820191906000526020600020905b8154815260200190600101908083116114df575b5050505050905060005b8151811015611541578482828151811061151a57611519613942565b5b6020026020010151036115305760019250611541565b8061153a90613a1b565b90506114fd565b5081611582576040517f08c379a000000000000000000000000000000000000000000000000000000000815260040161157990613ad5565b60405180910390fd5b600061158e8787612679565b90508015611785576000600760008981526020019081526020016000208054905090506000805b82811015611722578873ffffffffffffffffffffffffffffffffffffffff16600760008c815260200190815260200160002082815481106115f9576115f8613942565b5b9060005260206000200160009054906101000a900473ffffffffffffffffffffffffffffffffffffffff1673ffffffffffffffffffffffffffffffffffffffff16036117115760019150600760008b81526020019081526020016000206001846116639190613e71565b8154811061167457611673613942565b5b9060005260206000200160009054906101000a900473ffffffffffffffffffffffffffffffffffffffff16600760008c815260200190815260200160002082815481106116c4576116c3613942565b5b9060005260206000200160006101000a81548173ffffffffffffffffffffffffffffffffffffffff021916908373ffffffffffffffffffffffffffffffffffffffff160217905550611722565b8061171b90613a1b565b90506115b5565b50801561178257600760008a815260200190815260200160002080548061174c5761174b613ece565b5b6001900381819060005260206000200160006101000a81549073ffffffffffffffffffffffffffffffffffffffff021916905590555b50505b50505050505050565b6000606080600080600080600260003373ffffffffffffffffffffffffffffffffffffffff1673ffffffffffffffffffffffffffffffffffffffff16815260200190815260200160002080548060200260200160405190810160405280929190818152602001828054801561182257602002820191906000526020600020905b81548152602001906001019080831161180e575b5050505050905060005b8151811015611870578882828151811061184957611848613942565b5b60200260200101510361185f5760019250611870565b8061186990613a1b565b905061182c565b506000600760008a815260200190815260200160002080548060200260200160405190810160405280929190818152602001828054801561190657602002820191906000526020600020905b8160009054906101000a900473ffffffffffffffffffffffffffffffffffffffff1673ffffffffffffffffffffffffffffffffffffffff16815260200190600101908083116118bc575b5050505050905060005b8151811015611980573373ffffffffffffffffffffffffffffffffffffffff1682828151811061194357611942613942565b5b602002602001015173ffffffffffffffffffffffffffffffffffffffff160361196f5760019350611980565b8061197990613a1b565b9050611910565b50826119c55733896040517f389190bc0000000000000000000000000000000000000000000000000000000081526004016119bc929190613efd565b60405180910390fd5b6119cd612fa1565b60005b600180549050811015611c44578a600182815481106119f2576119f1613942565b5b90600052602060002090600502016000015403611c335760018181548110611a1d57611a1c613942565b5b90600052602060002090600502016040518060c0016040529081600082015481526020016001820160009054906101000a900473ffffffffffffffffffffffffffffffffffffffff1673ffffffffffffffffffffffffffffffffffffffff1673ffffffffffffffffffffffffffffffffffffffff168152602001600282018054611aa6906139a0565b80601f0160208091040260200160405190810160405280929190818152602001828054611ad2906139a0565b8015611b1f5780601f10611af457610100808354040283529160200191611b1f565b820191906000526020600020905b815481529060010190602001808311611b0257829003601f168201915b50505050508152602001600382018054611b38906139a0565b80601f0160208091040260200160405190810160405280929190818152602001828054611b64906139a0565b8015611bb15780601f10611b8657610100808354040283529160200191611bb1565b820191906000526020600020905b815481529060010190602001808311611b9457829003601f168201915b505050505081526020016004820160009054906101000a900460ff166001811115611bdf57611bde61330a565b5b6001811115611bf157611bf061330a565b5b81526020016004820160019054906101000a900460ff166002811115611c1a57611c1961330a565b5b6002811115611c2c57611c2b61330a565b5b8152505091505b80611c3d90613a1b565b90506119d0565b50806000015181604001518260600151611c618460800151612dc4565b611c6e8560a00151612e59565b985098509850985098505050505091939590929450565b600033905060006001805490509050600080600260008573ffffffffffffffffffffffffffffffffffffffff1673ffffffffffffffffffffffffffffffffffffffff168152602001908152602001600020805480602002602001604051908101604052809291908181526020018280548015611d2057602002820191906000526020600020905b815481526020019060010190808311611d0c575b5050505050905060005b8151811015611d6e5787828281518110611d4757611d46613942565b5b602002602001015103611d5d5760019250611d6e565b80611d6790613a1b565b9050611d2a565b5081611db157866040517f38b17baf000000000000000000000000000000000000000000000000000000008152600401611da891906139d1565b60405180910390fd5b60005b83811015611e60578760018281548110611dd157611dd0613942565b5b90600052602060002090600502016000015403611e4f578660018281548110611dfd57611dfc613942565b5b90600052602060002090600502016002019081611e1a9190613ca1565b508560018281548110611e3057611e2f613942565b5b90600052602060002090600502016003019081611e4d9190613ca1565b505b80611e5990613a1b565b9050611db4565b5050505050505050565b6000600260003373ffffffffffffffffffffffffffffffffffffffff1673ffffffffffffffffffffffffffffffffffffffff1681526020019081526020016000208054905090506000805b82811015611ffc5783600260003373ffffffffffffffffffffffffffffffffffffffff1673ffffffffffffffffffffffffffffffffffffffff1681526020019081526020016000208281548110611f0f57611f0e613942565b5b906000526020600020015403611feb5760019150600260003373ffffffffffffffffffffffffffffffffffffffff1673ffffffffffffffffffffffffffffffffffffffff168152602001908152602001600020600184611f6f9190613e71565b81548110611f8057611f7f613942565b5b9060005260206000200154600260003373ffffffffffffffffffffffffffffffffffffffff1673ffffffffffffffffffffffffffffffffffffffff1681526020019081526020016000208281548110611fdc57611fdb613942565b5b90600052602060002001819055505b80611ff590613a1b565b9050611eb5565b508061203f57826040517f38b17baf00000000000000000000000000000000000000000000000000000000815260040161203691906139d1565b60405180910390fd5b600260003373ffffffffffffffffffffffffffffffffffffffff1673ffffffffffffffffffffffffffffffffffffffff16815260200190815260200160002080548061208e5761208d613ece565b5b6001900381819060005260206000200160009055905560018054905091506000805b838110156122615784600182815481106120cd576120cc613942565b5b906000526020600020906005020160000154036122505760019150600180856120f69190613e71565b8154811061210757612106613942565b5b90600052602060002090600502016001828154811061212957612128613942565b5b9060005260206000209060050201600082015481600001556001820160009054906101000a900473ffffffffffffffffffffffffffffffffffffffff168160010160006101000a81548173ffffffffffffffffffffffffffffffffffffffff021916908373ffffffffffffffffffffffffffffffffffffffff160217905550600282018160020190816121bc9190613f3c565b50600382018160030190816121d19190613f3c565b506004820160009054906101000a900460ff168160040160006101000a81548160ff0219169083600181111561220a5761220961330a565b5b02179055506004820160019054906101000a900460ff168160040160016101000a81548160ff021916908360028111156122475761224661330a565b5b02179055509050505b8061225a90613a1b565b90506120b0565b50806122a457836040517f38b17baf00000000000000000000000000000000000000000000000000000000815260040161229b91906139d1565b60405180910390fd5b60018054806122b6576122b5613ece565b5b60019003818190600052602060002090600502016000808201600090556001820160006101000a81549073ffffffffffffffffffffffffffffffffffffffff021916905560028201600061230a9190613011565b60038201600061231a9190613011565b6004820160006101000a81549060ff02191690556004820160016101000a81549060ff02191690555050905550505050565b60008054906101000a900473ffffffffffffffffffffffffffffffffffffffff1681565b600160028111156123845761238361330a565b5b600360003373ffffffffffffffffffffffffffffffffffffffff1673ffffffffffffffffffffffffffffffffffffffff16815260200190815260200160002060009054906101000a900460ff1660028111156123e3576123e261330a565b5b03612423576040517f08c379a000000000000000000000000000000000000000000000000000000000815260040161241a90614070565b60405180910390fd5b6000600360003373ffffffffffffffffffffffffffffffffffffffff1673ffffffffffffffffffffffffffffffffffffffff16815260200190815260200160002060006101000a81548160ff021916908360028111156124865761248561330a565b5b02179055506000600180549050905060006040518060c001604052808381526020013373ffffffffffffffffffffffffffffffffffffffff168152602001858152602001848152602001600060018111156124e4576124e361330a565b5b8152602001600060028111156124fd576124fc61330a565b5b815250905060018190806001815401808255809150506001900390600052602060002090600502016000909190919091506000820151816000015560208201518160010160006101000a81548173ffffffffffffffffffffffffffffffffffffffff021916908373ffffffffffffffffffffffffffffffffffffffff16021790555060408201518160020190816125949190613ca1565b5060608201518160030190816125aa9190613ca1565b5060808201518160040160006101000a81548160ff021916908360018111156125d6576125d561330a565b5b021790555060a08201518160040160016101000a81548160ff021916908360028111156126065761260561330a565b5b02179055505050600260003373ffffffffffffffffffffffffffffffffffffffff1673ffffffffffffffffffffffffffffffffffffffff16815260200190815260200160002082908060018154018082558091505060019003906000526020600020016000909190919091505550505050565b600080600760008581526020019081526020016000208054905090506000805b8281101561273d578473ffffffffffffffffffffffffffffffffffffffff166007600088815260200190815260200160002082815481106126dd576126dc613942565b5b9060005260206000200160009054906101000a900473ffffffffffffffffffffffffffffffffffffffff1673ffffffffffffffffffffffffffffffffffffffff160361272c576001915061273d565b8061273690613a1b565b9050612699565b50809250505092915050565b6000600480549050905060008214806127625750600182145b6127a1576040517f08c379a000000000000000000000000000000000000000000000000000000000815260040161279890614102565b60405180910390fd5b6000805b82811015612ae95784600482815481106127c2576127c1613942565b5b90600052602060002090600502016000015403612ad8573373ffffffffffffffffffffffffffffffffffffffff166004828154811061280457612803613942565b5b906000526020600020906005020160040160009054906101000a900473ffffffffffffffffffffffffffffffffffffffff1673ffffffffffffffffffffffffffffffffffffffff16146128905784336040517fa4fa61f4000000000000000000000000000000000000000000000000000000008152600401612887929190613ea5565b60405180910390fd5b60076000600483815481106128a8576128a7613942565b5b9060005260206000209060050201600101548152602001908152602001600020600482815481106128dc576128db613942565b5b906000526020600020906005020160030160009054906101000a900473ffffffffffffffffffffffffffffffffffffffff169080600181540180825580915050600190039060005260206000200160009091909190916101000a81548173ffffffffffffffffffffffffffffffffffffffff021916908373ffffffffffffffffffffffffffffffffffffffff160217905550600180549050925060005b83811015612ad2576004828154811061299557612994613942565b5b906000526020600020906005020160010154600182815481106129bb576129ba613942565b5b90600052602060002090600502016000015403612ac1576000600182815481106129e8576129e7613942565b5b906000526020600020906005020160040160016101000a81548160ff02191690836002811115612a1b57612a1a61330a565b5b021790555060019250600160048381548110612a3a57612a39613942565b5b906000526020600020906005020160040160146101000a81548160ff02191690831515021790555060018514612a71576002612a74565b60015b60048381548110612a8857612a87613942565b5b906000526020600020906005020160040160156101000a81548160ff02191690836002811115612abb57612aba61330a565b5b02179055505b80612acb90613a1b565b9050612979565b50612ae9565b80612ae290613a1b565b90506127a5565b5080612b2c57836040517f4ec726c7000000000000000000000000000000000000000000000000000000008152600401612b2391906139d1565b60405180910390fd5b50505050565b612b3a612fa1565b6000600180549050905060005b81811015612dbc578360018281548110612b6457612b63613942565b5b90600052602060002090600502016000015403612dab5760018181548110612b8f57612b8e613942565b5b90600052602060002090600502016040518060c0016040529081600082015481526020016001820160009054906101000a900473ffffffffffffffffffffffffffffffffffffffff1673ffffffffffffffffffffffffffffffffffffffff1673ffffffffffffffffffffffffffffffffffffffff168152602001600282018054612c18906139a0565b80601f0160208091040260200160405190810160405280929190818152602001828054612c44906139a0565b8015612c915780601f10612c6657610100808354040283529160200191612c91565b820191906000526020600020905b815481529060010190602001808311612c7457829003601f168201915b50505050508152602001600382018054612caa906139a0565b80601f0160208091040260200160405190810160405280929190818152602001828054612cd6906139a0565b8015612d235780601f10612cf857610100808354040283529160200191612d23565b820191906000526020600020905b815481529060010190602001808311612d0657829003601f168201915b505050505081526020016004820160009054906101000a900460ff166001811115612d5157612d5061330a565b5b6001811115612d6357612d6261330a565b5b81526020016004820160019054906101000a900460ff166002811115612d8c57612d8b61330a565b5b6002811115612d9e57612d9d61330a565b5b8152505092505050612dbf565b80612db590613a1b565b9050612b47565b50505b919050565b6000807fffffffffffffffffffffffffffffffffffffffffffffffffffffffffffffffff905060006001811115612dfe57612dfd61330a565b5b836001811115612e1157612e1061330a565b5b03612e1f5760009050612e50565b600180811115612e3257612e3161330a565b5b836001811115612e4557612e4461330a565b5b03612e4f57600190505b5b80915050919050565b6000807fffffffffffffffffffffffffffffffffffffffffffffffffffffffffffffffff905060006002811115612e9357612e9261330a565b5b836002811115612ea657612ea561330a565b5b03612eb45760009050612f1b565b60016002811115612ec857612ec761330a565b5b836002811115612edb57612eda61330a565b5b03612ee95760019050612f1a565b600280811115612efc57612efb61330a565b5b836002811115612f0f57612f0e61330a565b5b03612f1957600290505b5b5b80915050919050565b6040518060e00160405280600081526020016000815260200160608152602001600073ffffffffffffffffffffffffffffffffffffffff168152602001600073ffffffffffffffffffffffffffffffffffffffff16815260200160001515815260200160006002811115612f9b57612f9a61330a565b5b81525090565b6040518060c0016040528060008152602001600073ffffffffffffffffffffffffffffffffffffffff168152602001606081526020016060815260200160006001811115612ff257612ff161330a565b5b81526020016000600281111561300b5761300a61330a565b5b81525090565b50805461301d906139a0565b6000825580601f1061302f575061304e565b601f01602090049060005260206000209081019061304d9190613051565b5b50565b5b8082111561306a576000816000905550600101613052565b5090565b6000604051905090565b600080fd5b600080fd5b600073ffffffffffffffffffffffffffffffffffffffff82169050919050565b60006130ad82613082565b9050919050565b6130bd816130a2565b81146130c857600080fd5b50565b6000813590506130da816130b4565b92915050565b6000602082840312156130f6576130f5613078565b5b6000613104848285016130cb565b91505092915050565b600081519050919050565b600082825260208201905092915050565b6000819050602082019050919050565b6000819050919050565b61314c81613139565b82525050565b600061315e8383613143565b60208301905092915050565b6000602082019050919050565b60006131828261310d565b61318c8185613118565b935061319783613129565b8060005b838110156131c85781516131af8882613152565b97506131ba8361316a565b92505060018101905061319b565b5085935050505092915050565b600060208201905081810360008301526131ef8184613177565b905092915050565b61320081613139565b811461320b57600080fd5b50565b60008135905061321d816131f7565b92915050565b60006020828403121561323957613238613078565b5b60006132478482850161320e565b91505092915050565b600081519050919050565b600082825260208201905092915050565b60005b8381101561328a57808201518184015260208101905061326f565b60008484015250505050565b6000601f19601f8301169050919050565b60006132b282613250565b6132bc818561325b565b93506132cc81856020860161326c565b6132d581613296565b840191505092915050565b6132e9816130a2565b82525050565b60008115159050919050565b613304816132ef565b82525050565b7f4e487b7100000000000000000000000000000000000000000000000000000000600052602160045260246000fd5b6003811061334a5761334961330a565b5b50565b600081905061335b82613339565b919050565b600061336b8261334d565b9050919050565b61337b81613360565b82525050565b600060e0830160008301516133996000860182613143565b5060208301516133ac6020860182613143565b50604083015184820360408601526133c482826132a7565b91505060608301516133d960608601826132e0565b5060808301516133ec60808601826132e0565b5060a08301516133ff60a08601826132fb565b5060c083015161341260c0860182613372565b508091505092915050565b600060208201905081810360008301526134378184613381565b905092915050565b6000806040838503121561345657613455613078565b5b60006134648582860161320e565b9250506020613475858286016130cb565b9150509250929050565b613488816132ef565b82525050565b60006020820190506134a3600083018461347f565b92915050565b600080604083850312156134c0576134bf613078565b5b60006134ce8582860161320e565b92505060206134df8582860161320e565b9150509250929050565b6134f281613139565b82525050565b600082825260208201905092915050565b600061351482613250565b61351e81856134f8565b935061352e81856020860161326c565b61353781613296565b840191505092915050565b6000819050919050565b61355581613542565b82525050565b600060a08201905061357060008301886134e9565b81810360208301526135828187613509565b905081810360408301526135968186613509565b90506135a5606083018561354c565b6135b2608083018461354c565b9695505050505050565b600080fd5b600080fd5b7f4e487b7100000000000000000000000000000000000000000000000000000000600052604160045260246000fd5b6135fe82613296565b810181811067ffffffffffffffff8211171561361d5761361c6135c6565b5b80604052505050565b600061363061306e565b905061363c82826135f5565b919050565b600067ffffffffffffffff82111561365c5761365b6135c6565b5b61366582613296565b9050602081019050919050565b82818337600083830152505050565b600061369461368f84613641565b613626565b9050828152602081018484840111156136b0576136af6135c1565b5b6136bb848285613672565b509392505050565b600082601f8301126136d8576136d76135bc565b5b81356136e8848260208601613681565b91505092915050565b60008060006060848603121561370a57613709613078565b5b60006137188682870161320e565b935050602084013567ffffffffffffffff8111156137395761373861307d565b5b613745868287016136c3565b925050604084013567ffffffffffffffff8111156137665761376561307d565b5b613772868287016136c3565b9150509250925092565b613785816130a2565b82525050565b60006020820190506137a0600083018461377c565b92915050565b600080604083850312156137bd576137bc613078565b5b600083013567ffffffffffffffff8111156137db576137da61307d565b5b6137e7858286016136c3565b925050602083013567ffffffffffffffff8111156138085761380761307d565b5b613814858286016136c3565b9150509250929050565b7f4f6e6c792041444d494e2063616e20706572666f726d20746869730000000000600082015250565b6000613854601b836134f8565b915061385f8261381e565b602082019050919050565b6000602082019050818103600083015261388381613847565b9050919050565b7f546869732077616c6c657420616464726573732063616e6e6f7420626520757360008201527f656420617320495353554552206163636f756e742c20616c726561647920696e60208201527f207573657220617320484f4c4445520000000000000000000000000000000000604082015250565b600061390c604f836134f8565b91506139178261388a565b606082019050919050565b6000602082019050818103600083015261393b816138ff565b9050919050565b7f4e487b7100000000000000000000000000000000000000000000000000000000600052603260045260246000fd5b7f4e487b7100000000000000000000000000000000000000000000000000000000600052602260045260246000fd5b600060028204905060018216806139b857607f821691505b6020821081036139cb576139ca613971565b5b50919050565b60006020820190506139e660008301846134e9565b92915050565b7f4e487b7100000000000000000000000000000000000000000000000000000000600052601160045260246000fd5b6000613a2682613139565b91507fffffffffffffffffffffffffffffffffffffffffffffffffffffffffffffffff8203613a5857613a576139ec565b5b600182019050919050565b7f5573657220646f65736e2774206861766520656e6f756768207065726d69737360008201527f696f6e0000000000000000000000000000000000000000000000000000000000602082015250565b6000613abf6023836134f8565b9150613aca82613a63565b604082019050919050565b60006020820190508181036000830152613aee81613ab2565b9050919050565b60008190508160005260206000209050919050565b60006020601f8301049050919050565b600082821b905092915050565b600060088302613b577fffffffffffffffffffffffffffffffffffffffffffffffffffffffffffffffff82613b1a565b613b618683613b1a565b95508019841693508086168417925050509392505050565b6000819050919050565b6000613b9e613b99613b9484613139565b613b79565b613139565b9050919050565b6000819050919050565b613bb883613b83565b613bcc613bc482613ba5565b848454613b27565b825550505050565b600090565b613be1613bd4565b613bec818484613baf565b505050565b5b81811015613c1057613c05600082613bd9565b600181019050613bf2565b5050565b601f821115613c5557613c2681613af5565b613c2f84613b0a565b81016020851015613c3e578190505b613c52613c4a85613b0a565b830182613bf1565b50505b505050565b600082821c905092915050565b6000613c7860001984600802613c5a565b1980831691505092915050565b6000613c918383613c67565b9150826002028217905092915050565b613caa82613250565b67ffffffffffffffff811115613cc357613cc26135c6565b5b613ccd82546139a0565b613cd8828285613c14565b600060209050601f831160018114613d0b5760008415613cf9578287015190505b613d038582613c85565b865550613d6b565b601f198416613d1986613af5565b60005b82811015613d4157848901518255600182019150602085019450602081019050613d1c565b86831015613d5e5784890151613d5a601f891682613c67565b8355505b6001600288020188555050505b505050505050565b7f4f6e6c7920497373756572202855736572292063616e2072756e20746869732060008201527f7574696c69747900000000000000000000000000000000000000000000000000602082015250565b6000613dcf6027836134f8565b9150613dda82613d73565b604082019050919050565b60006020820190508181036000830152613dfe81613dc2565b9050919050565b7f496e76616c69642053544154555320636f646500000000000000000000000000600082015250565b6000613e3b6013836134f8565b9150613e4682613e05565b602082019050919050565b60006020820190508181036000830152613e6a81613e2e565b9050919050565b6000613e7c82613139565b9150613e8783613139565b9250828203905081811115613e9f57613e9e6139ec565b5b92915050565b6000604082019050613eba60008301856134e9565b613ec7602083018461377c565b9392505050565b7f4e487b7100000000000000000000000000000000000000000000000000000000600052603160045260246000fd5b6000604082019050613f12600083018561377c565b613f1f60208301846134e9565b9392505050565b600081549050613f35816139a0565b9050919050565b818103613f4a575050614022565b613f5382613f26565b67ffffffffffffffff811115613f6c57613f6b6135c6565b5b613f7682546139a0565b613f81828285613c14565b6000601f831160018114613fb05760008415613f9e578287015490505b613fa88582613c85565b86555061401b565b601f198416613fbe87613af5565b9650613fc986613af5565b60005b82811015613ff157848901548255600182019150600185019450602081019050613fcc565b8683101561400e578489015461400a601f891682613c67565b8355505b6001600288020188555050505b5050505050505b565b7f4973737565722043616e6e6f7420646174612061732055736572000000000000600082015250565b600061405a601a836134f8565b915061406582614024565b602082019050919050565b600060208201905081810360008301526140898161404d565b9050919050565b7f496e76616c696420737461747573206e756d6265722c206974206d757374206260008201527f652030206f722031000000000000000000000000000000000000000000000000602082015250565b60006140ec6028836134f8565b91506140f782614090565b604082019050919050565b6000602082019050818103600083015261411b816140df565b905091905056fea26469706673582212202b765eea796273fec8f95a13ca41840f8875c1e57c2da67a7e9efdf6eb5eb0b764736f6c63430008110033",
  "linkReferences": {},
  "deployedLinkReferences": {}
}