{
  "_format": "hh-sol-artifact-1",
  "contractName": "Consent",
  "sourceName": "contracts/Consent.sol",
  "abi": [
    {
      "inputs": [],
      "stateMutability": "nonpayable",
      "type": "constructor"
    },
    {
      "inputs": [
        {
          "internalType": "uint256",
          "name": "request_id",
          "type": "uint256"
        }
      ],
      "name": "InvalidRequestID",
      "type": "error"
    },
    {
      "inputs": [
        {
          "internalType": "address",
          "name": "user_address",
          "type": "address"
        },
        {
          "internalType": "uint256",
          "name": "data_id",
          "type": "uint256"
        }
      ],
      "name": "NotEnoughPermission",
      "type": "error"
    },
    {
      "inputs": [
        {
          "internalType": "uint256",
          "name": "data_id",
          "type": "uint256"
        },
        {
          "internalType": "address",
          "name": "user_address",
          "type": "address"
        }
      ],
      "name": "PermissionNotFound",
      "type": "error"
    },
    {
      "inputs": [
        {
          "internalType": "uint256",
          "name": "request_id",
          "type": "uint256"
        }
      ],
      "name": "RequestNotFound",
      "type": "error"
    },
    {
      "inputs": [
        {
          "internalType": "uint256",
          "name": "requested_data_id",
          "type": "uint256"
        },
        {
          "internalType": "address",
          "name": "current_user",
          "type": "address"
        }
      ],
      "name": "ThisRequestWasNotMadeToCurrentUser",
      "type": "error"
    },
    {
      "inputs": [
        {
          "internalType": "uint256",
          "name": "user_data_id",
          "type": "uint256"
        }
      ],
      "name": "UserDataNotFound",
      "type": "error"
    },
    {
      "inputs": [
        {
          "internalType": "string",
          "name": "data_name",
          "type": "string"
        },
        {
          "internalType": "string",
          "name": "data_cid",
          "type": "string"
        }
      ],
      "name": "addUserData",
      "outputs": [],
      "stateMutability": "nonpayable",
      "type": "function"
    },
    {
      "inputs": [
        {
          "internalType": "uint256",
          "name": "data_id",
          "type": "uint256"
        },
        {
          "internalType": "address",
          "name": "recipient_address",
          "type": "address"
        }
      ],
      "name": "check_consent",
      "outputs": [
        {
          "internalType": "bool",
          "name": "status",
          "type": "bool"
        }
      ],
      "stateMutability": "view",
      "type": "function"
    },
    {
      "inputs": [
        {
          "internalType": "uint256",
          "name": "request_id",
          "type": "uint256"
        },
        {
          "internalType": "uint256",
          "name": "status",
          "type": "uint256"
        }
      ],
      "name": "fulfillRequest",
      "outputs": [],
      "stateMutability": "nonpayable",
      "type": "function"
    },
    {
      "inputs": [
        {
          "internalType": "uint256",
          "name": "data_id",
          "type": "uint256"
        }
      ],
      "name": "getApprovedConsentsForData",
      "outputs": [
        {
          "internalType": "address[]",
          "name": "consent_give_to",
          "type": "address[]"
        }
      ],
      "stateMutability": "view",
      "type": "function"
    },
    {
      "inputs": [
        {
          "internalType": "uint256",
          "name": "request_id",
          "type": "uint256"
        }
      ],
      "name": "getRequestById",
      "outputs": [
        {
          "components": [
            {
              "internalType": "uint256",
              "name": "request_id",
              "type": "uint256"
            },
            {
              "internalType": "uint256",
              "name": "requested_data_id",
              "type": "uint256"
            },
            {
              "internalType": "string",
              "name": "requested_data_name",
              "type": "string"
            },
            {
              "internalType": "address",
              "name": "request_from",
              "type": "address"
            },
            {
              "internalType": "address",
              "name": "request_to",
              "type": "address"
            },
            {
              "internalType": "bool",
              "name": "isCompleted",
              "type": "bool"
            },
            {
              "internalType": "enum Consent.RequestStatus",
              "name": "request_status",
              "type": "uint8"
            }
          ],
          "internalType": "struct Consent.UserDataRequest",
          "name": "request",
          "type": "tuple"
        }
      ],
      "stateMutability": "view",
      "type": "function"
    },
    {
      "inputs": [],
      "name": "getRequestIndexesForCurrentUser",
      "outputs": [
        {
          "internalType": "uint256[]",
          "name": "",
          "type": "uint256[]"
        }
      ],
      "stateMutability": "view",
      "type": "function"
    },
    {
      "inputs": [],
      "name": "getSenderUserDataIndexes",
      "outputs": [
        {
          "internalType": "uint256[]",
          "name": "user_data_indexes",
          "type": "uint256[]"
        }
      ],
      "stateMutability": "view",
      "type": "function"
    },
    {
      "inputs": [],
      "name": "getUserRequest",
      "outputs": [
        {
          "internalType": "uint256[]",
          "name": "current_user_requests",
          "type": "uint256[]"
        }
      ],
      "stateMutability": "view",
      "type": "function"
    },
    {
      "inputs": [
        {
          "internalType": "uint256",
          "name": "data_id",
          "type": "uint256"
        },
        {
          "internalType": "address",
          "name": "recipient_address",
          "type": "address"
        }
      ],
      "name": "give_consent",
      "outputs": [],
      "stateMutability": "nonpayable",
      "type": "function"
    },
    {
      "inputs": [
        {
          "internalType": "uint256",
          "name": "request_id",
          "type": "uint256"
        }
      ],
      "name": "isRequestMadeByIssuer",
      "outputs": [
        {
          "internalType": "bool",
          "name": "is_issuer",
          "type": "bool"
        }
      ],
      "stateMutability": "view",
      "type": "function"
    },
    {
      "inputs": [
        {
          "internalType": "address",
          "name": "user_address",
          "type": "address"
        }
      ],
      "name": "isUserIssuer",
      "outputs": [
        {
          "internalType": "bool",
          "name": "is_issuer",
          "type": "bool"
        }
      ],
      "stateMutability": "view",
      "type": "function"
    },
    {
      "inputs": [
        {
          "internalType": "uint256",
          "name": "user_data_id",
          "type": "uint256"
        },
        {
          "internalType": "uint256",
          "name": "status",
          "type": "uint256"
        }
      ],
      "name": "issuerVerification",
      "outputs": [],
      "stateMutability": "nonpayable",
      "type": "function"
    },
    {
      "inputs": [
        {
          "internalType": "address",
          "name": "issuer_address",
          "type": "address"
        }
      ],
      "name": "makeIssuer",
      "outputs": [],
      "stateMutability": "nonpayable",
      "type": "function"
    },
    {
      "inputs": [
        {
          "internalType": "uint256",
          "name": "requested_data_id",
          "type": "uint256"
        }
      ],
      "name": "makeRequest",
      "outputs": [],
      "stateMutability": "nonpayable",
      "type": "function"
    },
    {
      "inputs": [],
      "name": "owner",
      "outputs": [
        {
          "internalType": "address",
          "name": "",
          "type": "address"
        }
      ],
      "stateMutability": "view",
      "type": "function"
    },
    {
      "inputs": [
        {
          "internalType": "uint256",
          "name": "data_id",
          "type": "uint256"
        }
      ],
      "name": "readUserData",
      "outputs": [
        {
          "internalType": "uint256",
          "name": "user_data_id",
          "type": "uint256"
        },
        {
          "internalType": "string",
          "name": "user_data_name",
          "type": "string"
        },
        {
          "internalType": "string",
          "name": "user_data_cid",
          "type": "string"
        },
        {
          "internalType": "int256",
          "name": "data_verification_stage",
          "type": "int256"
        },
        {
          "internalType": "int256",
          "name": "issuer_verification_status",
          "type": "int256"
        }
      ],
      "stateMutability": "view",
      "type": "function"
    },
    {
      "inputs": [
        {
          "internalType": "uint256",
          "name": "data_id",
          "type": "uint256"
        }
      ],
      "name": "removeUserData",
      "outputs": [],
      "stateMutability": "nonpayable",
      "type": "function"
    },
    {
      "inputs": [
        {
          "internalType": "uint256",
          "name": "data_id",
          "type": "uint256"
        },
        {
          "internalType": "address",
          "name": "recipient_address",
          "type": "address"
        }
      ],
      "name": "revoke_consent",
      "outputs": [],
      "stateMutability": "nonpayable",
      "type": "function"
    },
    {
      "inputs": [
        {
          "internalType": "uint256",
          "name": "data_id",
          "type": "uint256"
        },
        {
          "internalType": "string",
          "name": "new_data_name",
          "type": "string"
        },
        {
          "internalType": "string",
          "name": "new_data_cid",
          "type": "string"
        }
      ],
      "name": "updateUserData",
      "outputs": [],
      "stateMutability": "nonpayable",
      "type": "function"
    }
  ],
  "bytecode": "0x60806040523480156200001157600080fd5b50336000806101000a81548173ffffffffffffffffffffffffffffffffffffffff021916908373ffffffffffffffffffffffffffffffffffffffff1602179055506001600360008060009054906101000a900473ffffffffffffffffffffffffffffffffffffffff1673ffffffffffffffffffffffffffffffffffffffff1673ffffffffffffffffffffffffffffffffffffffff16815260200190815260200160002060006101000a81548160ff02191690836002811115620000d957620000d8620000e4565b5b021790555062000113565b7f4e487b7100000000000000000000000000000000000000000000000000000000600052602160045260246000fd5b61441b80620001236000396000f3fe608060405234801561001057600080fd5b50600436106101215760003560e01c80634c79ac17116100ad5780638da5cb5b116100715780638da5cb5b1461030857806391356ad114610326578063c5d954a514610356578063d83a175a14610372578063ff836f38146103a257610121565b80634c79ac17146102625780634d578d17146102805780636d76cb3e1461029c57806372192a8f146102d05780637fc3a0f6146102ec57610121565b80633a468086116100f45780633a468086146101ae5780633b40075d146101ca5780633f7e53cd146101e657806343ba2bbc14610216578063474718e61461023257610121565b8063118ecbd814610126578063215d68dd1461014257806326757b73146101605780632bb55d7314610190575b600080fd5b610140600480360381019061013b91906132d2565b6103be565b005b61014a61056a565b60405161015791906133c7565b60405180910390f35b61017a60048036038101906101759190613415565b610605565b604051610187919061360f565b60405180910390f35b610198610976565b6040516101a591906133c7565b60405180910390f35b6101c860048036038101906101c39190613631565b610a11565b005b6101e460048036038101906101df9190613415565b610bc3565b005b61020060048036038101906101fb9190613415565b610e6b565b60405161020d9190613680565b60405180910390f35b610230600480360381019061022b919061369b565b610f2a565b005b61024c600480360381019061024791906132d2565b611384565b6040516102599190613680565b60405180910390f35b61026a611401565b60405161027791906133c7565b60405180910390f35b61029a60048036038101906102959190613631565b61149c565b005b6102b660048036038101906102b19190613415565b6117c9565b6040516102c795949392919061374d565b60405180910390f35b6102ea60048036038101906102e591906138e3565b611cc0565b005b61030660048036038101906103019190613415565b611ea5565b005b610310612387565b60405161031d919061397d565b60405180910390f35b610340600480360381019061033b9190613415565b6123ab565b60405161034d9190613a47565b60405180910390f35b610370600480360381019061036b9190613a69565b612562565b005b61038c60048036038101906103879190613631565b61286b565b6040516103999190613680565b60405180910390f35b6103bc60048036038101906103b7919061369b565b61293b565b005b60008054906101000a900473ffffffffffffffffffffffffffffffffffffffff1673ffffffffffffffffffffffffffffffffffffffff163373ffffffffffffffffffffffffffffffffffffffff161461044c576040517f08c379a000000000000000000000000000000000000000000000000000000000815260040161044390613b2d565b60405180910390fd5b600060028111156104605761045f6134fc565b5b600360008373ffffffffffffffffffffffffffffffffffffffff1673ffffffffffffffffffffffffffffffffffffffff16815260200190815260200160002060009054906101000a900460ff1660028111156104bf576104be6134fc565b5b036104ff576040517f08c379a00000000000000000000000000000000000000000000000000000000081526004016104f690613be5565b60405180910390fd5b6001600360008373ffffffffffffffffffffffffffffffffffffffff1673ffffffffffffffffffffffffffffffffffffffff16815260200190815260200160002060006101000a81548160ff02191690836002811115610562576105616134fc565b5b021790555050565b60606000339050600260008273ffffffffffffffffffffffffffffffffffffffff1673ffffffffffffffffffffffffffffffffffffffff1681526020019081526020016000208054806020026020016040519081016040528092919081815260200182805480156105fa57602002820191906000526020600020905b8154815260200190600101908083116105e6575b505050505091505090565b61060d613116565b6000600480549050905060005b8181101561096e57836004828154811061063757610636613c05565b5b9060005260206000209060050201600001540361095d576004818154811061066257610661613c05565b5b906000526020600020906005020160030160009054906101000a900473ffffffffffffffffffffffffffffffffffffffff1673ffffffffffffffffffffffffffffffffffffffff163373ffffffffffffffffffffffffffffffffffffffff16148061073d5750600481815481106106dc576106db613c05565b5b906000526020600020906005020160040160009054906101000a900473ffffffffffffffffffffffffffffffffffffffff1673ffffffffffffffffffffffffffffffffffffffff163373ffffffffffffffffffffffffffffffffffffffff16145b15610920576004818154811061075657610755613c05565b5b90600052602060002090600502016040518060e0016040529081600082015481526020016001820154815260200160028201805461079390613c63565b80601f01602080910402602001604051908101604052809291908181526020018280546107bf90613c63565b801561080c5780601f106107e15761010080835404028352916020019161080c565b820191906000526020600020905b8154815290600101906020018083116107ef57829003601f168201915b505050505081526020016003820160009054906101000a900473ffffffffffffffffffffffffffffffffffffffff1673ffffffffffffffffffffffffffffffffffffffff1673ffffffffffffffffffffffffffffffffffffffff1681526020016004820160009054906101000a900473ffffffffffffffffffffffffffffffffffffffff1673ffffffffffffffffffffffffffffffffffffffff1673ffffffffffffffffffffffffffffffffffffffff1681526020016004820160149054906101000a900460ff161515151581526020016004820160159054906101000a900460ff166002811115610901576109006134fc565b5b6002811115610913576109126134fc565b5b8152505092505050610971565b836040517fdaeced500000000000000000000000000000000000000000000000000000000081526004016109549190613c94565b60405180910390fd5b8061096790613cde565b905061061a565b50505b919050565b60606000600660003373ffffffffffffffffffffffffffffffffffffffff1673ffffffffffffffffffffffffffffffffffffffff168152602001908152602001600020805480602002602001604051908101604052809291908181526020018280548015610a0357602002820191906000526020600020905b8154815260200190600101908083116109ef575b505050505090508091505090565b816000339050600080600260008473ffffffffffffffffffffffffffffffffffffffff1673ffffffffffffffffffffffffffffffffffffffff168152602001908152602001600020805480602002602001604051908101604052809291908181526020018280548015610aa357602002820191906000526020600020905b815481526020019060010190808311610a8f575b5050505050905060005b8151811015610af15784828281518110610aca57610ac9613c05565b5b602002602001015103610ae05760019250610af1565b80610aea90613cde565b9050610aad565b5081610b32576040517f08c379a0000000000000000000000000000000000000000000000000000000008152600401610b2990613d98565b60405180910390fd5b6000610b3e878761286b565b905080610bba5760076000888152602001908152602001600020869080600181540180825580915050600190039060005260206000200160009091909190916101000a81548173ffffffffffffffffffffffffffffffffffffffff021916908373ffffffffffffffffffffffffffffffffffffffff1602179055505b50505050505050565b600060048054905090506000610bd883612d24565b905060006040518060e0016040528084815260200183600001518152602001836040015181526020013373ffffffffffffffffffffffffffffffffffffffff168152602001836020015173ffffffffffffffffffffffffffffffffffffffff16815260200160001515815260200160006002811115610c5a57610c596134fc565b5b8152509050600481908060018154018082558091505060019003906000526020600020906005020160009091909190915060008201518160000155602082015181600101556040820151816002019081610cb49190613f64565b5060608201518160030160006101000a81548173ffffffffffffffffffffffffffffffffffffffff021916908373ffffffffffffffffffffffffffffffffffffffff16021790555060808201518160040160006101000a81548173ffffffffffffffffffffffffffffffffffffffff021916908373ffffffffffffffffffffffffffffffffffffffff16021790555060a08201518160040160146101000a81548160ff02191690831515021790555060c08201518160040160156101000a81548160ff02191690836002811115610d8e57610d8d6134fc565b5b0217905550505060056000836020015173ffffffffffffffffffffffffffffffffffffffff1673ffffffffffffffffffffffffffffffffffffffff168152602001908152602001600020839080600181540180825580915050600190039060005260206000200160009091909190915055600660003373ffffffffffffffffffffffffffffffffffffffff1673ffffffffffffffffffffffffffffffffffffffff16815260200190815260200160002083908060018154018082558091505060019003906000526020600020016000909190919091505550505050565b60008060048054905090506000806000905060005b83811015610f16578560048281548110610e9d57610e9c613c05565b5b90600052602060002090600502016000015403610f05576001915060048181548110610ecc57610ecb613c05565b5b906000526020600020906005020160030160009054906101000a900473ffffffffffffffffffffffffffffffffffffffff169250610f16565b80610f0f90613cde565b9050610e80565b50610f2082611384565b9350505050919050565b600033905060016002811115610f4357610f426134fc565b5b600360008373ffffffffffffffffffffffffffffffffffffffff1673ffffffffffffffffffffffffffffffffffffffff16815260200190815260200160002060009054906101000a900460ff166002811115610fa257610fa16134fc565b5b14610fe2576040517f08c379a0000000000000000000000000000000000000000000000000000000008152600401610fd9906140a8565b60405180910390fd5b60008210158015610ff35750600382105b611032576040517f08c379a000000000000000000000000000000000000000000000000000000000815260040161102990614114565b60405180910390fd5b600080600190506001840361104a5760019150611058565b6002840361105757600291505b5b60005b60018054905081101561115557856001828154811061107d5761107c613c05565b5b906000526020600020906005020160000154036111445782600182815481106110a9576110a8613c05565b5b906000526020600020906005020160040160016101000a81548160ff021916908360028111156110dc576110db6134fc565b5b021790555060018514806110f05750600285145b1561114357816001828154811061110a57611109613c05565b5b906000526020600020906005020160040160006101000a81548160ff0219169083600181111561113d5761113c6134fc565b5b02179055505b5b8061114e90613cde565b905061105b565b506000806007600088815260200190815260200160002080549050905060005b818110156112de573373ffffffffffffffffffffffffffffffffffffffff16600760008a815260200190815260200160002082815481106111b9576111b8613c05565b5b9060005260206000200160009054906101000a900473ffffffffffffffffffffffffffffffffffffffff1673ffffffffffffffffffffffffffffffffffffffff16036112cd5760019250600760008981526020019081526020016000206001836112239190614134565b8154811061123457611233613c05565b5b9060005260206000200160009054906101000a900473ffffffffffffffffffffffffffffffffffffffff16600760008a8152602001908152602001600020828154811061128457611283613c05565b5b9060005260206000200160006101000a81548173ffffffffffffffffffffffffffffffffffffffff021916908373ffffffffffffffffffffffffffffffffffffffff1602179055505b806112d790613cde565b9050611175565b50816113235786336040517f98f1fa7400000000000000000000000000000000000000000000000000000000815260040161131a929190614168565b60405180910390fd5b6007600088815260200190815260200160002080548061134657611345614191565b5b6001900381819060005260206000200160006101000a81549073ffffffffffffffffffffffffffffffffffffffff0219169055905550505050505050565b60006001600281111561139a576113996134fc565b5b600360008473ffffffffffffffffffffffffffffffffffffffff1673ffffffffffffffffffffffffffffffffffffffff16815260200190815260200160002060009054906101000a900460ff1660028111156113f9576113f86134fc565b5b149050919050565b60606000600560003373ffffffffffffffffffffffffffffffffffffffff1673ffffffffffffffffffffffffffffffffffffffff16815260200190815260200160002080548060200260200160405190810160405280929190818152602001828054801561148e57602002820191906000526020600020905b81548152602001906001019080831161147a575b505050505090508091505090565b816000339050600080600260008473ffffffffffffffffffffffffffffffffffffffff1673ffffffffffffffffffffffffffffffffffffffff16815260200190815260200160002080548060200260200160405190810160405280929190818152602001828054801561152e57602002820191906000526020600020905b81548152602001906001019080831161151a575b5050505050905060005b815181101561157c578482828151811061155557611554613c05565b5b60200260200101510361156b576001925061157c565b8061157590613cde565b9050611538565b50816115bd576040517f08c379a00000000000000000000000000000000000000000000000000000000081526004016115b490613d98565b60405180910390fd5b60006115c9878761286b565b905080156117c0576000600760008981526020019081526020016000208054905090506000805b8281101561175d578873ffffffffffffffffffffffffffffffffffffffff16600760008c8152602001908152602001600020828154811061163457611633613c05565b5b9060005260206000200160009054906101000a900473ffffffffffffffffffffffffffffffffffffffff1673ffffffffffffffffffffffffffffffffffffffff160361174c5760019150600760008b815260200190815260200160002060018461169e9190614134565b815481106116af576116ae613c05565b5b9060005260206000200160009054906101000a900473ffffffffffffffffffffffffffffffffffffffff16600760008c815260200190815260200160002082815481106116ff576116fe613c05565b5b9060005260206000200160006101000a81548173ffffffffffffffffffffffffffffffffffffffff021916908373ffffffffffffffffffffffffffffffffffffffff16021790555061175d565b8061175690613cde565b90506115f0565b5080156117bd57600760008a815260200190815260200160002080548061178757611786614191565b5b6001900381819060005260206000200160006101000a81549073ffffffffffffffffffffffffffffffffffffffff021916905590555b50505b50505050505050565b6000606080600080600080600260003373ffffffffffffffffffffffffffffffffffffffff1673ffffffffffffffffffffffffffffffffffffffff16815260200190815260200160002080548060200260200160405190810160405280929190818152602001828054801561185d57602002820191906000526020600020905b815481526020019060010190808311611849575b5050505050905060005b81518110156118ab578882828151811061188457611883613c05565b5b60200260200101510361189a57600192506118ab565b806118a490613cde565b9050611867565b506000600760008a815260200190815260200160002080548060200260200160405190810160405280929190818152602001828054801561194157602002820191906000526020600020905b8160009054906101000a900473ffffffffffffffffffffffffffffffffffffffff1673ffffffffffffffffffffffffffffffffffffffff16815260200190600101908083116118f7575b5050505050905060005b81518110156119bb573373ffffffffffffffffffffffffffffffffffffffff1682828151811061197e5761197d613c05565b5b602002602001015173ffffffffffffffffffffffffffffffffffffffff16036119aa57600193506119bb565b806119b490613cde565b905061194b565b5082611a005733896040517f389190bc0000000000000000000000000000000000000000000000000000000081526004016119f79291906141c0565b60405180910390fd5b611a08613193565b60005b600180549050811015611c7f578a60018281548110611a2d57611a2c613c05565b5b90600052602060002090600502016000015403611c6e5760018181548110611a5857611a57613c05565b5b90600052602060002090600502016040518060c0016040529081600082015481526020016001820160009054906101000a900473ffffffffffffffffffffffffffffffffffffffff1673ffffffffffffffffffffffffffffffffffffffff1673ffffffffffffffffffffffffffffffffffffffff168152602001600282018054611ae190613c63565b80601f0160208091040260200160405190810160405280929190818152602001828054611b0d90613c63565b8015611b5a5780601f10611b2f57610100808354040283529160200191611b5a565b820191906000526020600020905b815481529060010190602001808311611b3d57829003601f168201915b50505050508152602001600382018054611b7390613c63565b80601f0160208091040260200160405190810160405280929190818152602001828054611b9f90613c63565b8015611bec5780601f10611bc157610100808354040283529160200191611bec565b820191906000526020600020905b815481529060010190602001808311611bcf57829003601f168201915b505050505081526020016004820160009054906101000a900460ff166001811115611c1a57611c196134fc565b5b6001811115611c2c57611c2b6134fc565b5b81526020016004820160019054906101000a900460ff166002811115611c5557611c546134fc565b5b6002811115611c6757611c666134fc565b5b8152505091505b80611c7890613cde565b9050611a0b565b50806000015181604001518260600151611c9c8460800151612fb6565b611ca98560a0015161304b565b985098509850985098505050505091939590929450565b600033905060006001805490509050600080600260008573ffffffffffffffffffffffffffffffffffffffff1673ffffffffffffffffffffffffffffffffffffffff168152602001908152602001600020805480602002602001604051908101604052809291908181526020018280548015611d5b57602002820191906000526020600020905b815481526020019060010190808311611d47575b5050505050905060005b8151811015611da95787828281518110611d8257611d81613c05565b5b602002602001015103611d985760019250611da9565b80611da290613cde565b9050611d65565b5081611dec57866040517f38b17baf000000000000000000000000000000000000000000000000000000008152600401611de39190613c94565b60405180910390fd5b60005b83811015611e9b578760018281548110611e0c57611e0b613c05565b5b90600052602060002090600502016000015403611e8a578660018281548110611e3857611e37613c05565b5b90600052602060002090600502016002019081611e559190613f64565b508560018281548110611e6b57611e6a613c05565b5b90600052602060002090600502016003019081611e889190613f64565b505b80611e9490613cde565b9050611def565b5050505050505050565b6000600260003373ffffffffffffffffffffffffffffffffffffffff1673ffffffffffffffffffffffffffffffffffffffff1681526020019081526020016000208054905090506000805b828110156120375783600260003373ffffffffffffffffffffffffffffffffffffffff1673ffffffffffffffffffffffffffffffffffffffff1681526020019081526020016000208281548110611f4a57611f49613c05565b5b9060005260206000200154036120265760019150600260003373ffffffffffffffffffffffffffffffffffffffff1673ffffffffffffffffffffffffffffffffffffffff168152602001908152602001600020600184611faa9190614134565b81548110611fbb57611fba613c05565b5b9060005260206000200154600260003373ffffffffffffffffffffffffffffffffffffffff1673ffffffffffffffffffffffffffffffffffffffff168152602001908152602001600020828154811061201757612016613c05565b5b90600052602060002001819055505b8061203090613cde565b9050611ef0565b508061207a57826040517f38b17baf0000000000000000000000000000000000000000000000000000000081526004016120719190613c94565b60405180910390fd5b600260003373ffffffffffffffffffffffffffffffffffffffff1673ffffffffffffffffffffffffffffffffffffffff1681526020019081526020016000208054806120c9576120c8614191565b5b6001900381819060005260206000200160009055905560018054905091506000805b8381101561229c57846001828154811061210857612107613c05565b5b9060005260206000209060050201600001540361228b5760019150600180856121319190614134565b8154811061214257612141613c05565b5b90600052602060002090600502016001828154811061216457612163613c05565b5b9060005260206000209060050201600082015481600001556001820160009054906101000a900473ffffffffffffffffffffffffffffffffffffffff168160010160006101000a81548173ffffffffffffffffffffffffffffffffffffffff021916908373ffffffffffffffffffffffffffffffffffffffff160217905550600282018160020190816121f791906141ff565b506003820181600301908161220c91906141ff565b506004820160009054906101000a900460ff168160040160006101000a81548160ff02191690836001811115612245576122446134fc565b5b02179055506004820160019054906101000a900460ff168160040160016101000a81548160ff02191690836002811115612282576122816134fc565b5b02179055509050505b8061229590613cde565b90506120eb565b50806122df57836040517f38b17baf0000000000000000000000000000000000000000000000000000000081526004016122d69190613c94565b60405180910390fd5b60018054806122f1576122f0614191565b5b60019003818190600052602060002090600502016000808201600090556001820160006101000a81549073ffffffffffffffffffffffffffffffffffffffff02191690556002820160006123459190613203565b6003820160006123559190613203565b6004820160006101000a81549060ff02191690556004820160016101000a81549060ff02191690555050905550505050565b60008054906101000a900473ffffffffffffffffffffffffffffffffffffffff1681565b60606000600260003373ffffffffffffffffffffffffffffffffffffffff1673ffffffffffffffffffffffffffffffffffffffff1681526020019081526020016000208054905090506000805b8281101561247c5784600260003373ffffffffffffffffffffffffffffffffffffffff1673ffffffffffffffffffffffffffffffffffffffff168152602001908152602001600020828154811061245257612451613c05565b5b90600052602060002001540361246b576001915061247c565b8061247590613cde565b90506123f8565b50806124c15733846040517f389190bc0000000000000000000000000000000000000000000000000000000081526004016124b89291906141c0565b60405180910390fd5b6007600085815260200190815260200160002080548060200260200160405190810160405280929190818152602001828054801561255457602002820191906000526020600020905b8160009054906101000a900473ffffffffffffffffffffffffffffffffffffffff1673ffffffffffffffffffffffffffffffffffffffff168152602001906001019080831161250a575b505050505092505050919050565b60016002811115612576576125756134fc565b5b600360003373ffffffffffffffffffffffffffffffffffffffff1673ffffffffffffffffffffffffffffffffffffffff16815260200190815260200160002060009054906101000a900460ff1660028111156125d5576125d46134fc565b5b03612615576040517f08c379a000000000000000000000000000000000000000000000000000000000815260040161260c90614333565b60405180910390fd5b6000600360003373ffffffffffffffffffffffffffffffffffffffff1673ffffffffffffffffffffffffffffffffffffffff16815260200190815260200160002060006101000a81548160ff02191690836002811115612678576126776134fc565b5b02179055506000600180549050905060006040518060c001604052808381526020013373ffffffffffffffffffffffffffffffffffffffff168152602001858152602001848152602001600060018111156126d6576126d56134fc565b5b8152602001600060028111156126ef576126ee6134fc565b5b815250905060018190806001815401808255809150506001900390600052602060002090600502016000909190919091506000820151816000015560208201518160010160006101000a81548173ffffffffffffffffffffffffffffffffffffffff021916908373ffffffffffffffffffffffffffffffffffffffff16021790555060408201518160020190816127869190613f64565b50606082015181600301908161279c9190613f64565b5060808201518160040160006101000a81548160ff021916908360018111156127c8576127c76134fc565b5b021790555060a08201518160040160016101000a81548160ff021916908360028111156127f8576127f76134fc565b5b02179055505050600260003373ffffffffffffffffffffffffffffffffffffffff1673ffffffffffffffffffffffffffffffffffffffff16815260200190815260200160002082908060018154018082558091505060019003906000526020600020016000909190919091505550505050565b600080600760008581526020019081526020016000208054905090506000805b8281101561292f578473ffffffffffffffffffffffffffffffffffffffff166007600088815260200190815260200160002082815481106128cf576128ce613c05565b5b9060005260206000200160009054906101000a900473ffffffffffffffffffffffffffffffffffffffff1673ffffffffffffffffffffffffffffffffffffffff160361291e576001915061292f565b8061292890613cde565b905061288b565b50809250505092915050565b6000600480549050905060008214806129545750600182145b612993576040517f08c379a000000000000000000000000000000000000000000000000000000000815260040161298a906143c5565b60405180910390fd5b6000805b82811015612cdb5784600482815481106129b4576129b3613c05565b5b90600052602060002090600502016000015403612cca573373ffffffffffffffffffffffffffffffffffffffff16600482815481106129f6576129f5613c05565b5b906000526020600020906005020160040160009054906101000a900473ffffffffffffffffffffffffffffffffffffffff1673ffffffffffffffffffffffffffffffffffffffff1614612a825784336040517fa4fa61f4000000000000000000000000000000000000000000000000000000008152600401612a79929190614168565b60405180910390fd5b6007600060048381548110612a9a57612a99613c05565b5b906000526020600020906005020160010154815260200190815260200160002060048281548110612ace57612acd613c05565b5b906000526020600020906005020160030160009054906101000a900473ffffffffffffffffffffffffffffffffffffffff169080600181540180825580915050600190039060005260206000200160009091909190916101000a81548173ffffffffffffffffffffffffffffffffffffffff021916908373ffffffffffffffffffffffffffffffffffffffff160217905550600180549050925060005b83811015612cc45760048281548110612b8757612b86613c05565b5b90600052602060002090600502016001015460018281548110612bad57612bac613c05565b5b90600052602060002090600502016000015403612cb357600060018281548110612bda57612bd9613c05565b5b906000526020600020906005020160040160016101000a81548160ff02191690836002811115612c0d57612c0c6134fc565b5b021790555060019250600160048381548110612c2c57612c2b613c05565b5b906000526020600020906005020160040160146101000a81548160ff02191690831515021790555060018514612c63576002612c66565b60015b60048381548110612c7a57612c79613c05565b5b906000526020600020906005020160040160156101000a81548160ff02191690836002811115612cad57612cac6134fc565b5b02179055505b80612cbd90613cde565b9050612b6b565b50612cdb565b80612cd490613cde565b9050612997565b5080612d1e57836040517f4ec726c7000000000000000000000000000000000000000000000000000000008152600401612d159190613c94565b60405180910390fd5b50505050565b612d2c613193565b6000600180549050905060005b81811015612fae578360018281548110612d5657612d55613c05565b5b90600052602060002090600502016000015403612f9d5760018181548110612d8157612d80613c05565b5b90600052602060002090600502016040518060c0016040529081600082015481526020016001820160009054906101000a900473ffffffffffffffffffffffffffffffffffffffff1673ffffffffffffffffffffffffffffffffffffffff1673ffffffffffffffffffffffffffffffffffffffff168152602001600282018054612e0a90613c63565b80601f0160208091040260200160405190810160405280929190818152602001828054612e3690613c63565b8015612e835780601f10612e5857610100808354040283529160200191612e83565b820191906000526020600020905b815481529060010190602001808311612e6657829003601f168201915b50505050508152602001600382018054612e9c90613c63565b80601f0160208091040260200160405190810160405280929190818152602001828054612ec890613c63565b8015612f155780601f10612eea57610100808354040283529160200191612f15565b820191906000526020600020905b815481529060010190602001808311612ef857829003601f168201915b505050505081526020016004820160009054906101000a900460ff166001811115612f4357612f426134fc565b5b6001811115612f5557612f546134fc565b5b81526020016004820160019054906101000a900460ff166002811115612f7e57612f7d6134fc565b5b6002811115612f9057612f8f6134fc565b5b8152505092505050612fb1565b80612fa790613cde565b9050612d39565b50505b919050565b6000807fffffffffffffffffffffffffffffffffffffffffffffffffffffffffffffffff905060006001811115612ff057612fef6134fc565b5b836001811115613003576130026134fc565b5b036130115760009050613042565b600180811115613024576130236134fc565b5b836001811115613037576130366134fc565b5b0361304157600190505b5b80915050919050565b6000807fffffffffffffffffffffffffffffffffffffffffffffffffffffffffffffffff905060006002811115613085576130846134fc565b5b836002811115613098576130976134fc565b5b036130a6576000905061310d565b600160028111156130ba576130b96134fc565b5b8360028111156130cd576130cc6134fc565b5b036130db576001905061310c565b6002808111156130ee576130ed6134fc565b5b836002811115613101576131006134fc565b5b0361310b57600290505b5b5b80915050919050565b6040518060e00160405280600081526020016000815260200160608152602001600073ffffffffffffffffffffffffffffffffffffffff168152602001600073ffffffffffffffffffffffffffffffffffffffff1681526020016000151581526020016000600281111561318d5761318c6134fc565b5b81525090565b6040518060c0016040528060008152602001600073ffffffffffffffffffffffffffffffffffffffff1681526020016060815260200160608152602001600060018111156131e4576131e36134fc565b5b8152602001600060028111156131fd576131fc6134fc565b5b81525090565b50805461320f90613c63565b6000825580601f106132215750613240565b601f01602090049060005260206000209081019061323f9190613243565b5b50565b5b8082111561325c576000816000905550600101613244565b5090565b6000604051905090565b600080fd5b600080fd5b600073ffffffffffffffffffffffffffffffffffffffff82169050919050565b600061329f82613274565b9050919050565b6132af81613294565b81146132ba57600080fd5b50565b6000813590506132cc816132a6565b92915050565b6000602082840312156132e8576132e761326a565b5b60006132f6848285016132bd565b91505092915050565b600081519050919050565b600082825260208201905092915050565b6000819050602082019050919050565b6000819050919050565b61333e8161332b565b82525050565b60006133508383613335565b60208301905092915050565b6000602082019050919050565b6000613374826132ff565b61337e818561330a565b93506133898361331b565b8060005b838110156133ba5781516133a18882613344565b97506133ac8361335c565b92505060018101905061338d565b5085935050505092915050565b600060208201905081810360008301526133e18184613369565b905092915050565b6133f28161332b565b81146133fd57600080fd5b50565b60008135905061340f816133e9565b92915050565b60006020828403121561342b5761342a61326a565b5b600061343984828501613400565b91505092915050565b600081519050919050565b600082825260208201905092915050565b60005b8381101561347c578082015181840152602081019050613461565b60008484015250505050565b6000601f19601f8301169050919050565b60006134a482613442565b6134ae818561344d565b93506134be81856020860161345e565b6134c781613488565b840191505092915050565b6134db81613294565b82525050565b60008115159050919050565b6134f6816134e1565b82525050565b7f4e487b7100000000000000000000000000000000000000000000000000000000600052602160045260246000fd5b6003811061353c5761353b6134fc565b5b50565b600081905061354d8261352b565b919050565b600061355d8261353f565b9050919050565b61356d81613552565b82525050565b600060e08301600083015161358b6000860182613335565b50602083015161359e6020860182613335565b50604083015184820360408601526135b68282613499565b91505060608301516135cb60608601826134d2565b5060808301516135de60808601826134d2565b5060a08301516135f160a08601826134ed565b5060c083015161360460c0860182613564565b508091505092915050565b600060208201905081810360008301526136298184613573565b905092915050565b600080604083850312156136485761364761326a565b5b600061365685828601613400565b9250506020613667858286016132bd565b9150509250929050565b61367a816134e1565b82525050565b60006020820190506136956000830184613671565b92915050565b600080604083850312156136b2576136b161326a565b5b60006136c085828601613400565b92505060206136d185828601613400565b9150509250929050565b6136e48161332b565b82525050565b600082825260208201905092915050565b600061370682613442565b61371081856136ea565b935061372081856020860161345e565b61372981613488565b840191505092915050565b6000819050919050565b61374781613734565b82525050565b600060a08201905061376260008301886136db565b818103602083015261377481876136fb565b9050818103604083015261378881866136fb565b9050613797606083018561373e565b6137a4608083018461373e565b9695505050505050565b600080fd5b600080fd5b7f4e487b7100000000000000000000000000000000000000000000000000000000600052604160045260246000fd5b6137f082613488565b810181811067ffffffffffffffff8211171561380f5761380e6137b8565b5b80604052505050565b6000613822613260565b905061382e82826137e7565b919050565b600067ffffffffffffffff82111561384e5761384d6137b8565b5b61385782613488565b9050602081019050919050565b82818337600083830152505050565b600061388661388184613833565b613818565b9050828152602081018484840111156138a2576138a16137b3565b5b6138ad848285613864565b509392505050565b600082601f8301126138ca576138c96137ae565b5b81356138da848260208601613873565b91505092915050565b6000806000606084860312156138fc576138fb61326a565b5b600061390a86828701613400565b935050602084013567ffffffffffffffff81111561392b5761392a61326f565b5b613937868287016138b5565b925050604084013567ffffffffffffffff8111156139585761395761326f565b5b613964868287016138b5565b9150509250925092565b61397781613294565b82525050565b6000602082019050613992600083018461396e565b92915050565b600081519050919050565b600082825260208201905092915050565b6000819050602082019050919050565b60006139d083836134d2565b60208301905092915050565b6000602082019050919050565b60006139f482613998565b6139fe81856139a3565b9350613a09836139b4565b8060005b83811015613a3a578151613a2188826139c4565b9750613a2c836139dc565b925050600181019050613a0d565b5085935050505092915050565b60006020820190508181036000830152613a6181846139e9565b905092915050565b60008060408385031215613a8057613a7f61326a565b5b600083013567ffffffffffffffff811115613a9e57613a9d61326f565b5b613aaa858286016138b5565b925050602083013567ffffffffffffffff811115613acb57613aca61326f565b5b613ad7858286016138b5565b9150509250929050565b7f4f6e6c792041444d494e2063616e20706572666f726d20746869730000000000600082015250565b6000613b17601b836136ea565b9150613b2282613ae1565b602082019050919050565b60006020820190508181036000830152613b4681613b0a565b9050919050565b7f546869732077616c6c657420616464726573732063616e6e6f7420626520757360008201527f656420617320495353554552206163636f756e742c20616c726561647920696e60208201527f207573657220617320484f4c4445520000000000000000000000000000000000604082015250565b6000613bcf604f836136ea565b9150613bda82613b4d565b606082019050919050565b60006020820190508181036000830152613bfe81613bc2565b9050919050565b7f4e487b7100000000000000000000000000000000000000000000000000000000600052603260045260246000fd5b7f4e487b7100000000000000000000000000000000000000000000000000000000600052602260045260246000fd5b60006002820490506001821680613c7b57607f821691505b602082108103613c8e57613c8d613c34565b5b50919050565b6000602082019050613ca960008301846136db565b92915050565b7f4e487b7100000000000000000000000000000000000000000000000000000000600052601160045260246000fd5b6000613ce98261332b565b91507fffffffffffffffffffffffffffffffffffffffffffffffffffffffffffffffff8203613d1b57613d1a613caf565b5b600182019050919050565b7f5573657220646f65736e2774206861766520656e6f756768207065726d69737360008201527f696f6e0000000000000000000000000000000000000000000000000000000000602082015250565b6000613d826023836136ea565b9150613d8d82613d26565b604082019050919050565b60006020820190508181036000830152613db181613d75565b9050919050565b60008190508160005260206000209050919050565b60006020601f8301049050919050565b600082821b905092915050565b600060088302613e1a7fffffffffffffffffffffffffffffffffffffffffffffffffffffffffffffffff82613ddd565b613e248683613ddd565b95508019841693508086168417925050509392505050565b6000819050919050565b6000613e61613e5c613e578461332b565b613e3c565b61332b565b9050919050565b6000819050919050565b613e7b83613e46565b613e8f613e8782613e68565b848454613dea565b825550505050565b600090565b613ea4613e97565b613eaf818484613e72565b505050565b5b81811015613ed357613ec8600082613e9c565b600181019050613eb5565b5050565b601f821115613f1857613ee981613db8565b613ef284613dcd565b81016020851015613f01578190505b613f15613f0d85613dcd565b830182613eb4565b50505b505050565b600082821c905092915050565b6000613f3b60001984600802613f1d565b1980831691505092915050565b6000613f548383613f2a565b9150826002028217905092915050565b613f6d82613442565b67ffffffffffffffff811115613f8657613f856137b8565b5b613f908254613c63565b613f9b828285613ed7565b600060209050601f831160018114613fce5760008415613fbc578287015190505b613fc68582613f48565b86555061402e565b601f198416613fdc86613db8565b60005b8281101561400457848901518255600182019150602085019450602081019050613fdf565b86831015614021578489015161401d601f891682613f2a565b8355505b6001600288020188555050505b505050505050565b7f4f6e6c7920497373756572202855736572292063616e2072756e20746869732060008201527f7574696c69747900000000000000000000000000000000000000000000000000602082015250565b60006140926027836136ea565b915061409d82614036565b604082019050919050565b600060208201905081810360008301526140c181614085565b9050919050565b7f496e76616c69642053544154555320636f646500000000000000000000000000600082015250565b60006140fe6013836136ea565b9150614109826140c8565b602082019050919050565b6000602082019050818103600083015261412d816140f1565b9050919050565b600061413f8261332b565b915061414a8361332b565b925082820390508181111561416257614161613caf565b5b92915050565b600060408201905061417d60008301856136db565b61418a602083018461396e565b9392505050565b7f4e487b7100000000000000000000000000000000000000000000000000000000600052603160045260246000fd5b60006040820190506141d5600083018561396e565b6141e260208301846136db565b9392505050565b6000815490506141f881613c63565b9050919050565b81810361420d5750506142e5565b614216826141e9565b67ffffffffffffffff81111561422f5761422e6137b8565b5b6142398254613c63565b614244828285613ed7565b6000601f8311600181146142735760008415614261578287015490505b61426b8582613f48565b8655506142de565b601f19841661428187613db8565b965061428c86613db8565b60005b828110156142b45784890154825560018201915060018501945060208101905061428f565b868310156142d157848901546142cd601f891682613f2a565b8355505b6001600288020188555050505b5050505050505b565b7f4973737565722043616e6e6f7420646174612061732055736572000000000000600082015250565b600061431d601a836136ea565b9150614328826142e7565b602082019050919050565b6000602082019050818103600083015261434c81614310565b9050919050565b7f496e76616c696420737461747573206e756d6265722c206974206d757374206260008201527f652030206f722031000000000000000000000000000000000000000000000000602082015250565b60006143af6028836136ea565b91506143ba82614353565b604082019050919050565b600060208201905081810360008301526143de816143a2565b905091905056fea2646970667358221220c4b14fdbaa5c9be610ed9ecb91258d37272560d00f0303197b3b3c4dc73983cd64736f6c63430008110033",
  "linkReferences": {},
  "deployedLinkReferences": {}
}